{"abi":[{"type":"constructor","inputs":[{"name":"thunderLoan","type":"address","internalType":"address"}],"stateMutability":"nonpayable"},{"type":"function","name":"executeOperation","inputs":[{"name":"token","type":"address","internalType":"address"},{"name":"amount","type":"uint256","internalType":"uint256"},{"name":"fee","type":"uint256","internalType":"uint256"},{"name":"initiator","type":"address","internalType":"address"},{"name":"","type":"bytes","internalType":"bytes"}],"outputs":[{"name":"","type":"bool","internalType":"bool"}],"stateMutability":"nonpayable"},{"type":"function","name":"getBalanceAfter","inputs":[],"outputs":[{"name":"","type":"uint256","internalType":"uint256"}],"stateMutability":"view"},{"type":"function","name":"getBalanceDuring","inputs":[],"outputs":[{"name":"","type":"uint256","internalType":"uint256"}],"stateMutability":"view"},{"type":"error","name":"MockFlashLoanReceiver__onlyOwner","inputs":[]},{"type":"error","name":"MockFlashLoanReceiver__onlyThunderLoan","inputs":[]}],"bytecode":{"object":"0x608060405234801561000f575f80fd5b506040516108c53803806108c58339818101604052810190610031919061011b565b335f806101000a81548173ffffffffffffffffffffffffffffffffffffffff021916908373ffffffffffffffffffffffffffffffffffffffff1602179055508060015f6101000a81548173ffffffffffffffffffffffffffffffffffffffff021916908373ffffffffffffffffffffffffffffffffffffffff1602179055505f60028190555050610146565b5f80fd5b5f73ffffffffffffffffffffffffffffffffffffffff82169050919050565b5f6100ea826100c1565b9050919050565b6100fa816100e0565b8114610104575f80fd5b50565b5f81519050610115816100f1565b92915050565b5f602082840312156101305761012f6100bd565b5b5f61013d84828501610107565b91505092915050565b610772806101535f395ff3fe608060405234801561000f575f80fd5b506004361061003f575f3560e01c80631b11d0ff146100435780633127b73d14610073578063bd418d2c14610091575b5f80fd5b61005d60048036038101906100589190610508565b6100af565b60405161006a91906105b8565b60405180910390f35b61007b610400565b60405161008891906105e0565b60405180910390f35b610099610409565b6040516100a691906105e0565b60405180910390f35b5f8673ffffffffffffffffffffffffffffffffffffffff166370a08231306040518263ffffffff1660e01b81526004016100e99190610608565b602060405180830381865afa158015610104573d5f803e3d5ffd5b505050506040513d601f19601f820116820180604052508101906101289190610635565b6002819055505f8054906101000a900473ffffffffffffffffffffffffffffffffffffffff1673ffffffffffffffffffffffffffffffffffffffff168473ffffffffffffffffffffffffffffffffffffffff16146101b2576040517f7d1f649500000000000000000000000000000000000000000000000000000000815260040160405180910390fd5b60015f9054906101000a900473ffffffffffffffffffffffffffffffffffffffff1673ffffffffffffffffffffffffffffffffffffffff163373ffffffffffffffffffffffffffffffffffffffff1614610238576040517f551c6e6200000000000000000000000000000000000000000000000000000000815260040160405180910390fd5b8673ffffffffffffffffffffffffffffffffffffffff1663095ea7b360015f9054906101000a900473ffffffffffffffffffffffffffffffffffffffff168789610282919061068d565b6040518363ffffffff1660e01b815260040161029f9291906106c0565b6020604051808303815f875af11580156102bb573d5f803e3d5ffd5b505050506040513d601f19601f820116820180604052508101906102df9190610711565b5060015f9054906101000a900473ffffffffffffffffffffffffffffffffffffffff1673ffffffffffffffffffffffffffffffffffffffff166322867d7888878961032a919061068d565b6040518363ffffffff1660e01b81526004016103479291906106c0565b5f604051808303815f87803b15801561035e575f80fd5b505af1158015610370573d5f803e3d5ffd5b505050508673ffffffffffffffffffffffffffffffffffffffff166370a08231306040518263ffffffff1660e01b81526004016103ad9190610608565b602060405180830381865afa1580156103c8573d5f803e3d5ffd5b505050506040513d601f19601f820116820180604052508101906103ec9190610635565b600381905550600190509695505050505050565b5f600254905090565b5f600354905090565b5f80fd5b5f80fd5b5f73ffffffffffffffffffffffffffffffffffffffff82169050919050565b5f6104438261041a565b9050919050565b61045381610439565b811461045d575f80fd5b50565b5f8135905061046e8161044a565b92915050565b5f819050919050565b61048681610474565b8114610490575f80fd5b50565b5f813590506104a18161047d565b92915050565b5f80fd5b5f80fd5b5f80fd5b5f8083601f8401126104c8576104c76104a7565b5b8235905067ffffffffffffffff8111156104e5576104e46104ab565b5b602083019150836001820283011115610501576105006104af565b5b9250929050565b5f805f805f8060a0878903121561052257610521610412565b5b5f61052f89828a01610460565b965050602061054089828a01610493565b955050604061055189828a01610493565b945050606061056289828a01610460565b935050608087013567ffffffffffffffff81111561058357610582610416565b5b61058f89828a016104b3565b92509250509295509295509295565b5f8115159050919050565b6105b28161059e565b82525050565b5f6020820190506105cb5f8301846105a9565b92915050565b6105da81610474565b82525050565b5f6020820190506105f35f8301846105d1565b92915050565b61060281610439565b82525050565b5f60208201905061061b5f8301846105f9565b92915050565b5f8151905061062f8161047d565b92915050565b5f6020828403121561064a57610649610412565b5b5f61065784828501610621565b91505092915050565b7f4e487b71000000000000000000000000000000000000000000000000000000005f52601160045260245ffd5b5f61069782610474565b91506106a283610474565b92508282019050808211156106ba576106b9610660565b5b92915050565b5f6040820190506106d35f8301856105f9565b6106e060208301846105d1565b9392505050565b6106f08161059e565b81146106fa575f80fd5b50565b5f8151905061070b816106e7565b92915050565b5f6020828403121561072657610725610412565b5b5f610733848285016106fd565b9150509291505056fea26469706673582212207862badc7a8efad438b6e3a0ca2c091fe9040e46f938d75f21a2d10df43691e664736f6c63430008140033","linkReferences":{}},"methodIdentifiers":{"executeOperation(address,uint256,uint256,address,bytes)":"1b11d0ff","getBalanceAfter()":"bd418d2c","getBalanceDuring()":"3127b73d"},"id":46}