{"abi":[{"type":"constructor","inputs":[{"name":"weth","type":"address","internalType":"address"}],"stateMutability":"nonpayable"},{"type":"function","name":"createPool","inputs":[{"name":"tokenAddress","type":"address","internalType":"address"}],"outputs":[{"name":"","type":"address","internalType":"address"}],"stateMutability":"nonpayable"},{"type":"function","name":"getPool","inputs":[{"name":"tokenAddress","type":"address","internalType":"address"}],"outputs":[{"name":"","type":"address","internalType":"address"}],"stateMutability":"view"},{"type":"function","name":"getToken","inputs":[{"name":"pool","type":"address","internalType":"address"}],"outputs":[{"name":"","type":"address","internalType":"address"}],"stateMutability":"view"},{"type":"function","name":"i_weth","inputs":[],"outputs":[{"name":"","type":"address","internalType":"address"}],"stateMutability":"view"},{"type":"event","name":"PoolCreated","inputs":[{"name":"tokenAddress","type":"address","indexed":false,"internalType":"address"},{"name":"poolAddress","type":"address","indexed":false,"internalType":"address"}],"anonymous":false},{"type":"error","name":"PoolFactory__PoolAlreadyExists","inputs":[{"name":"tokenAddress","type":"address","internalType":"address"}]},{"type":"error","name":"PoolFactory__PoolDoesNotExist","inputs":[{"name":"tokenAddress","type":"address","internalType":"address"}]}],"bytecode":{"object":"0x60a060405234801561000f575f80fd5b50604051614113380380614113833981810160405281019061003191906100c9565b8073ffffffffffffffffffffffffffffffffffffffff1660808173ffffffffffffffffffffffffffffffffffffffff1681525050506100f4565b5f80fd5b5f73ffffffffffffffffffffffffffffffffffffffff82169050919050565b5f6100988261006f565b9050919050565b6100a88161008e565b81146100b2575f80fd5b50565b5f815190506100c38161009f565b92915050565b5f602082840312156100de576100dd61006b565b5b5f6100eb848285016100b5565b91505092915050565b6080516140006101135f395f818161011a01526102ba01526140005ff3fe608060405234801562000010575f80fd5b506004361062000050575f3560e01c80634dbe7e9214620000545780635977043814620000765780639049f9d214620000ac578063bbe4f6db14620000e2575b5f80fd5b6200005e62000118565b6040516200006d919062000505565b60405180910390f35b6200009460048036038101906200008e919062000553565b6200013c565b604051620000a3919062000505565b60405180910390f35b620000ca6004803603810190620000c4919062000553565b620001a1565b604051620000d9919062000505565b60405180910390f35b620001006004803603810190620000fa919062000553565b62000450565b6040516200010f919062000505565b60405180910390f35b7f000000000000000000000000000000000000000000000000000000000000000081565b5f60015f8373ffffffffffffffffffffffffffffffffffffffff1673ffffffffffffffffffffffffffffffffffffffff1681526020019081526020015f205f9054906101000a900473ffffffffffffffffffffffffffffffffffffffff169050919050565b5f8073ffffffffffffffffffffffffffffffffffffffff165f808473ffffffffffffffffffffffffffffffffffffffff1673ffffffffffffffffffffffffffffffffffffffff1681526020019081526020015f205f9054906101000a900473ffffffffffffffffffffffffffffffffffffffff1673ffffffffffffffffffffffffffffffffffffffff16146200027057816040517f50df0b2b00000000000000000000000000000000000000000000000000000000815260040162000267919062000505565b60405180910390fd5b5f6040516020016200028290620005cf565b60405160208183030381529060405290505f604051602001620002a59062000646565b60405160208183030381529060405290505f847f00000000000000000000000000000000000000000000000000000000000000008484604051620002e990620004b4565b620002f8949392919062000705565b604051809103905ff08015801562000312573d5f803e3d5ffd5b509050805f808773ffffffffffffffffffffffffffffffffffffffff1673ffffffffffffffffffffffffffffffffffffffff1681526020019081526020015f205f6101000a81548173ffffffffffffffffffffffffffffffffffffffff021916908373ffffffffffffffffffffffffffffffffffffffff1602179055508460015f8373ffffffffffffffffffffffffffffffffffffffff1673ffffffffffffffffffffffffffffffffffffffff1681526020019081526020015f205f6101000a81548173ffffffffffffffffffffffffffffffffffffffff021916908373ffffffffffffffffffffffffffffffffffffffff1602179055507f4f2ce4e40f623ca765fc0167a25cb7842ceaafb8d82d3dec26ca0d0e0d2d489685826040516200043d9291906200075e565b60405180910390a1809350505050919050565b5f805f8373ffffffffffffffffffffffffffffffffffffffff1673ffffffffffffffffffffffffffffffffffffffff1681526020019081526020015f205f9054906101000a900473ffffffffffffffffffffffffffffffffffffffff169050919050565b613841806200078a83390190565b5f73ffffffffffffffffffffffffffffffffffffffff82169050919050565b5f620004ed82620004c2565b9050919050565b620004ff81620004e1565b82525050565b5f6020820190506200051a5f830184620004f4565b92915050565b5f80fd5b6200052f81620004e1565b81146200053a575f80fd5b50565b5f813590506200054d8162000524565b92915050565b5f602082840312156200056b576200056a62000520565b5b5f6200057a848285016200053d565b91505092915050565b7f542d537761702000000000000000000000000000000000000000000000000000815250565b7f4c50000000000000000000000000000000000000000000000000000000000000815250565b5f620005db8262000583565b600782019150620005ec82620005a9565b600282019150819050919050565b7f7473000000000000000000000000000000000000000000000000000000000000815250565b7f4c50540000000000000000000000000000000000000000000000000000000000815250565b5f6200065282620005fa565b600282019150620006638262000620565b600382019150819050919050565b5f81519050919050565b5f82825260208201905092915050565b5f5b83811015620006aa5780820151818401526020810190506200068d565b5f8484015250505050565b5f601f19601f8301169050919050565b5f620006d18262000671565b620006dd81856200067b565b9350620006ef8185602086016200068b565b620006fa81620006b5565b840191505092915050565b5f6080820190506200071a5f830187620004f4565b620007296020830186620004f4565b81810360408301526200073d8185620006c5565b90508181036060830152620007538184620006c5565b905095945050505050565b5f604082019050620007735f830185620004f4565b620007826020830184620004f4565b939250505056fe60c060405234801562000010575f80fd5b5060405162003841380380620038418339818101604052810190620000369190620002b6565b818181600390816200004991906200059a565b5080600490816200005b91906200059a565b5050508273ffffffffffffffffffffffffffffffffffffffff1660808173ffffffffffffffffffffffffffffffffffffffff16815250508373ffffffffffffffffffffffffffffffffffffffff1660a08173ffffffffffffffffffffffffffffffffffffffff1681525050505050506200067e565b5f604051905090565b5f80fd5b5f80fd5b5f73ffffffffffffffffffffffffffffffffffffffff82169050919050565b5f6200010c82620000e1565b9050919050565b6200011e8162000100565b811462000129575f80fd5b50565b5f815190506200013c8162000113565b92915050565b5f80fd5b5f80fd5b5f601f19601f8301169050919050565b7f4e487b71000000000000000000000000000000000000000000000000000000005f52604160045260245ffd5b62000192826200014a565b810181811067ffffffffffffffff82111715620001b457620001b36200015a565b5b80604052505050565b5f620001c8620000d0565b9050620001d6828262000187565b919050565b5f67ffffffffffffffff821115620001f857620001f76200015a565b5b62000203826200014a565b9050602081019050919050565b5f5b838110156200022f57808201518184015260208101905062000212565b5f8484015250505050565b5f620002506200024a84620001db565b620001bd565b9050828152602081018484840111156200026f576200026e62000146565b5b6200027c84828562000210565b509392505050565b5f82601f8301126200029b576200029a62000142565b5b8151620002ad8482602086016200023a565b91505092915050565b5f805f8060808587031215620002d157620002d0620000d9565b5b5f620002e0878288016200012c565b9450506020620002f3878288016200012c565b935050604085015167ffffffffffffffff811115620003175762000316620000dd565b5b620003258782880162000284565b925050606085015167ffffffffffffffff811115620003495762000348620000dd565b5b620003578782880162000284565b91505092959194509250565b5f81519050919050565b7f4e487b71000000000000000000000000000000000000000000000000000000005f52602260045260245ffd5b5f6002820490506001821680620003b257607f821691505b602082108103620003c857620003c76200036d565b5b50919050565b5f819050815f5260205f209050919050565b5f6020601f8301049050919050565b5f82821b905092915050565b5f600883026200042c7fffffffffffffffffffffffffffffffffffffffffffffffffffffffffffffffff82620003ef565b620004388683620003ef565b95508019841693508086168417925050509392505050565b5f819050919050565b5f819050919050565b5f620004826200047c620004768462000450565b62000459565b62000450565b9050919050565b5f819050919050565b6200049d8362000462565b620004b5620004ac8262000489565b848454620003fb565b825550505050565b5f90565b620004cb620004bd565b620004d881848462000492565b505050565b5b81811015620004ff57620004f35f82620004c1565b600181019050620004de565b5050565b601f8211156200054e576200051881620003ce565b6200052384620003e0565b8101602085101562000533578190505b6200054b6200054285620003e0565b830182620004dd565b50505b505050565b5f82821c905092915050565b5f620005705f198460080262000553565b1980831691505092915050565b5f6200058a83836200055f565b9150826002028217905092915050565b620005a58262000363565b67ffffffffffffffff811115620005c157620005c06200015a565b5b620005cd82546200039a565b620005da82828562000503565b5f60209050601f83116001811462000610575f8415620005fb578287015190505b6200060785826200057d565b86555062000676565b601f1984166200062086620003ce565b5f5b82811015620006495784890151825560018201915060208501945060208101905062000622565b8683101562000669578489015162000665601f8916826200055f565b8355505b6001600288020188555050505b505050505050565b60805160a0516130f26200074f5f395f81816106e5015281816108a601528181610a7501528181610d910152818161103e015281816112210152818161144e01528181611693015281816117f401528181611b0f01528181611d9c01528181612016015261210401525f818161077d01528181610876015281816109da01528181610c1601528181610cf901528181610f86015281816111d6015281816114e6015281816115fb0152818161188c01528181611a7701528181611d5001528181611fc901526120b801526130f25ff3fe608060405234801561000f575f80fd5b506004361061018c575f3560e01c80636b3c4779116100dc578063a9059cbb11610095578063dd62ed3e1161006f578063dd62ed3e146104c4578063ecd3b649146104f4578063f4e1fc4114610524578063ff792c96146105425761018c565b8063a9059cbb14610458578063b7e7fdcc14610488578063ced72f87146104a65761018c565b80636b3c47791461036e57806370a082311461039e57806375dbac6c146103ce57806385b29438146103fe5780638fd782421461041c57806395d89b411461043a5761018c565b806323b872dd116101495780633f163cdf116101235780633f163cdf146102e65780634dbe7e92146103045780635a7fecc714610322578063674fb1b4146103525761018c565b806323b872dd146102685780632505c3d914610298578063313ce567146102c85761018c565b806306fdde0314610190578063095ea7b3146101ae578063101e2c55146101de578063107c279f1461020e57806318160ddd1461022c57806321df0da71461024a575b5f80fd5b610198610572565b6040516101a59190612a01565b60405180910390f35b6101c860048036038101906101c39190612ab2565b610602565b6040516101d59190612b0a565b60405180910390f35b6101f860048036038101906101f39190612b23565b610624565b6040516102059190612b82565b60405180910390f35b610216610873565b6040516102239190612baa565b60405180910390f35b61023461089a565b6040516102419190612b82565b60405180910390f35b6102526108a3565b60405161025f9190612baa565b60405180910390f35b610282600480360381019061027d9190612bc3565b6108ca565b60405161028f9190612b0a565b60405180910390f35b6102b260048036038101906102ad9190612c13565b6108f8565b6040516102bf9190612b82565b60405180910390f35b6102d0610c01565b6040516102dd9190612c92565b60405180910390f35b6102ee610c09565b6040516102fb9190612b82565b60405180910390f35b61030c610c14565b6040516103199190612d06565b60405180910390f35b61033c60048036038101906103379190612b23565b610c38565b6040516103499190612b82565b60405180910390f35b61036c60048036038101906103679190612c13565b610e87565b005b61038860048036038101906103839190612b23565b611271565b6040516103959190612b82565b60405180910390f35b6103b860048036038101906103b39190612d1f565b611348565b6040516103c59190612b82565b60405180910390f35b6103e860048036038101906103e39190612b23565b61138d565b6040516103f59190612b82565b60405180910390f35b6104066115de565b6040516104139190612b82565b60405180910390f35b6104246115ec565b6040516104319190612b82565b60405180910390f35b610442611733565b60405161044f9190612a01565b60405180910390f35b610472600480360381019061046d9190612ab2565b6117c3565b60405161047f9190612b0a565b60405180910390f35b6104906117e5565b60405161049d9190612b82565b60405180910390f35b6104ae61192c565b6040516104bb9190612b82565b60405180910390f35b6104de60048036038101906104d99190612d4a565b611934565b6040516104eb9190612b82565b60405180910390f35b61050e60048036038101906105099190612b23565b6119b6565b60405161051b9190612b82565b60405180910390f35b61052c611c05565b6040516105399190612b82565b60405180910390f35b61055c60048036038101906105579190612b23565b611c0e565b6040516105699190612b82565b60405180910390f35b60606003805461058190612db5565b80601f01602080910402602001604051908101604052809291908181526020018280546105ad90612db5565b80156105f85780601f106105cf576101008083540402835291602001916105f8565b820191905f5260205f20905b8154815290600101906020018083116105db57829003601f168201915b5050505050905090565b5f8061060c611ce0565b9050610619818585611ce7565b600191505092915050565b5f814281101561066b57806040517f4e6e384e0000000000000000000000000000000000000000000000000000000081526004016106629190612b82565b60405180910390fd5b845f81036106a5576040517f592cd3d200000000000000000000000000000000000000000000000000000000815260040160405180910390fd5b845f81036106df576040517f592cd3d200000000000000000000000000000000000000000000000000000000815260040160405180910390fd5b610818877f000000000000000000000000000000000000000000000000000000000000000073ffffffffffffffffffffffffffffffffffffffff166370a08231306040518263ffffffff1660e01b815260040161073c9190612baa565b602060405180830381865afa158015610757573d5f803e3d5ffd5b505050506040513d601f19601f8201168201806040525081019061077b9190612df9565b7f000000000000000000000000000000000000000000000000000000000000000073ffffffffffffffffffffffffffffffffffffffff166370a08231306040518263ffffffff1660e01b81526004016107d49190612baa565b602060405180830381865afa1580156107ef573d5f803e3d5ffd5b505050506040513d601f19601f820116820180604052508101906108139190612df9565b611271565b93508584101561085f57836040517f5eabd7460000000000000000000000000000000000000000000000000000000081526004016108569190612b82565b60405180910390fd5b6108698785611cf9565b5050509392505050565b5f7f0000000000000000000000000000000000000000000000000000000000000000905090565b5f600254905090565b5f7f0000000000000000000000000000000000000000000000000000000000000000905090565b5f806108d4611ce0565b90506108e1858285611de5565b6108ec858585611e77565b60019150509392505050565b5f814281101561093f57806040517f4e6e384e0000000000000000000000000000000000000000000000000000000081526004016109369190612b82565b60405180910390fd5b855f8103610979576040517f592cd3d200000000000000000000000000000000000000000000000000000000815260040160405180910390fd5b633b9aca008710156109c857633b9aca00876040517f1da6b0140000000000000000000000000000000000000000000000000000000081526004016109bf929190612e24565b60405180910390fd5b5f6109d161089a565b1115610be8575f7f000000000000000000000000000000000000000000000000000000000000000073ffffffffffffffffffffffffffffffffffffffff166370a08231306040518263ffffffff1660e01b8152600401610a319190612baa565b602060405180830381865afa158015610a4c573d5f803e3d5ffd5b505050506040513d601f19601f82011682018060405250810190610a709190612df9565b90505f7f000000000000000000000000000000000000000000000000000000000000000073ffffffffffffffffffffffffffffffffffffffff166370a08231306040518263ffffffff1660e01b8152600401610acc9190612baa565b602060405180830381865afa158015610ae7573d5f803e3d5ffd5b505050506040513d601f19601f82011682018060405250810190610b0b9190612df9565b90505f82828b610b1b9190612e78565b610b259190612ee6565b905080881015610b6e5787816040517f87536714000000000000000000000000000000000000000000000000000000008152600401610b65929190612e24565b60405180910390fd5b82610b776115de565b8b610b829190612e78565b610b8c9190612ee6565b955088861015610bd55788866040517f73b0b2a2000000000000000000000000000000000000000000000000000000008152600401610bcc929190612e24565b60405180910390fd5b610be08a8288611f67565b505050610bf7565b610bf3878689611f67565b8692505b5050949350505050565b5f6012905090565b5f633b9aca00905090565b7f000000000000000000000000000000000000000000000000000000000000000081565b5f8142811015610c7f57806040517f4e6e384e000000000000000000000000000000000000000000000000000000008152600401610c769190612b82565b60405180910390fd5b835f8103610cb9576040517f592cd3d200000000000000000000000000000000000000000000000000000000815260040160405180910390fd5b855f8103610cf3576040517f592cd3d200000000000000000000000000000000000000000000000000000000815260040160405180910390fd5b610e2c877f000000000000000000000000000000000000000000000000000000000000000073ffffffffffffffffffffffffffffffffffffffff166370a08231306040518263ffffffff1660e01b8152600401610d509190612baa565b602060405180830381865afa158015610d6b573d5f803e3d5ffd5b505050506040513d601f19601f82011682018060405250810190610d8f9190612df9565b7f000000000000000000000000000000000000000000000000000000000000000073ffffffffffffffffffffffffffffffffffffffff166370a08231306040518263ffffffff1660e01b8152600401610de89190612baa565b602060405180830381865afa158015610e03573d5f803e3d5ffd5b505050506040513d601f19601f82011682018060405250810190610e279190612df9565b611271565b935085841015610e7357856040517ff85588da000000000000000000000000000000000000000000000000000000008152600401610e6a9190612b82565b60405180910390fd5b610e7d8785612060565b5050509392505050565b8042811015610ecd57806040517f4e6e384e000000000000000000000000000000000000000000000000000000008152600401610ec49190612b82565b60405180910390fd5b845f8103610f07576040517f592cd3d200000000000000000000000000000000000000000000000000000000815260040160405180910390fd5b845f8103610f41576040517f592cd3d200000000000000000000000000000000000000000000000000000000815260040160405180910390fd5b845f8103610f7b576040517f592cd3d200000000000000000000000000000000000000000000000000000000815260040160405180910390fd5b5f610f846115de565b7f000000000000000000000000000000000000000000000000000000000000000073ffffffffffffffffffffffffffffffffffffffff166370a08231306040518263ffffffff1660e01b8152600401610fdd9190612baa565b602060405180830381865afa158015610ff8573d5f803e3d5ffd5b505050506040513d601f19601f8201168201806040525081019061101c9190612df9565b8a6110279190612e78565b6110319190612ee6565b90505f61103c6115de565b7f000000000000000000000000000000000000000000000000000000000000000073ffffffffffffffffffffffffffffffffffffffff166370a08231306040518263ffffffff1660e01b81526004016110959190612baa565b602060405180830381865afa1580156110b0573d5f803e3d5ffd5b505050506040513d601f19601f820116820180604052508101906110d49190612df9565b8b6110df9190612e78565b6110e99190612ee6565b90508882101561113057886040517f5eabd7460000000000000000000000000000000000000000000000000000000081526004016111279190612b82565b60405180910390fd5b8781101561117557876040517ff85588da00000000000000000000000000000000000000000000000000000000815260040161116c9190612b82565b60405180910390fd5b61117f338b61214c565b3373ffffffffffffffffffffffffffffffffffffffff167f96cd817c6329656790ef8fba7675405193677d39619571282f5e21f3a98cd05983836040516111c7929190612e24565b60405180910390a261121a33837f000000000000000000000000000000000000000000000000000000000000000073ffffffffffffffffffffffffffffffffffffffff166121cb9092919063ffffffff16565b61126533827f000000000000000000000000000000000000000000000000000000000000000073ffffffffffffffffffffffffffffffffffffffff166121cb9092919063ffffffff16565b50505050505050505050565b5f835f81036112ac576040517f592cd3d200000000000000000000000000000000000000000000000000000000815260040160405180910390fd5b825f81036112e6576040517f592cd3d200000000000000000000000000000000000000000000000000000000815260040160405180910390fd5b5f60036103e86112f69190612f16565b876113019190612e78565b90505f85826113109190612e78565b90505f826103e8896113229190612e78565b61132c9190612f49565b9050808261133a9190612ee6565b955050505050509392505050565b5f805f8373ffffffffffffffffffffffffffffffffffffffff1673ffffffffffffffffffffffffffffffffffffffff1681526020019081526020015f20549050919050565b5f81428110156113d457806040517f4e6e384e0000000000000000000000000000000000000000000000000000000081526004016113cb9190612b82565b60405180910390fd5b835f810361140e576040517f592cd3d200000000000000000000000000000000000000000000000000000000815260040160405180910390fd5b855f8103611448576040517f592cd3d200000000000000000000000000000000000000000000000000000000815260040160405180910390fd5b611581877f000000000000000000000000000000000000000000000000000000000000000073ffffffffffffffffffffffffffffffffffffffff166370a08231306040518263ffffffff1660e01b81526004016114a59190612baa565b602060405180830381865afa1580156114c0573d5f803e3d5ffd5b505050506040513d601f19601f820116820180604052508101906114e49190612df9565b7f000000000000000000000000000000000000000000000000000000000000000073ffffffffffffffffffffffffffffffffffffffff166370a08231306040518263ffffffff1660e01b815260040161153d9190612baa565b602060405180830381865afa158015611558573d5f803e3d5ffd5b505050506040513d601f19601f8201168201806040525081019061157c9190612df9565b611c0e565b9350858411156115ca5783866040517fcf92ab6d0000000000000000000000000000000000000000000000000000000081526004016115c1929190612e24565b60405180910390fd5b6115d48488612060565b5050509392505050565b5f6115e761089a565b905090565b5f61172e670de0b6b3a76400007f000000000000000000000000000000000000000000000000000000000000000073ffffffffffffffffffffffffffffffffffffffff166370a08231306040518263ffffffff1660e01b81526004016116529190612baa565b602060405180830381865afa15801561166d573d5f803e3d5ffd5b505050506040513d601f19601f820116820180604052508101906116919190612df9565b7f000000000000000000000000000000000000000000000000000000000000000073ffffffffffffffffffffffffffffffffffffffff166370a08231306040518263ffffffff1660e01b81526004016116ea9190612baa565b602060405180830381865afa158015611705573d5f803e3d5ffd5b505050506040513d601f19601f820116820180604052508101906117299190612df9565b611271565b905090565b60606004805461174290612db5565b80601f016020809104026020016040519081016040528092919081815260200182805461176e90612db5565b80156117b95780601f10611790576101008083540402835291602001916117b9565b820191905f5260205f20905b81548152906001019060200180831161179c57829003601f168201915b5050505050905090565b5f806117cd611ce0565b90506117da818585611e77565b600191505092915050565b5f611927670de0b6b3a76400007f000000000000000000000000000000000000000000000000000000000000000073ffffffffffffffffffffffffffffffffffffffff166370a08231306040518263ffffffff1660e01b815260040161184b9190612baa565b602060405180830381865afa158015611866573d5f803e3d5ffd5b505050506040513d601f19601f8201168201806040525081019061188a9190612df9565b7f000000000000000000000000000000000000000000000000000000000000000073ffffffffffffffffffffffffffffffffffffffff166370a08231306040518263ffffffff1660e01b81526004016118e39190612baa565b602060405180830381865afa1580156118fe573d5f803e3d5ffd5b505050506040513d601f19601f820116820180604052508101906119229190612df9565b611271565b905090565b5f6003905090565b5f60015f8473ffffffffffffffffffffffffffffffffffffffff1673ffffffffffffffffffffffffffffffffffffffff1681526020019081526020015f205f8373ffffffffffffffffffffffffffffffffffffffff1673ffffffffffffffffffffffffffffffffffffffff1681526020019081526020015f2054905092915050565b5f81428110156119fd57806040517f4e6e384e0000000000000000000000000000000000000000000000000000000081526004016119f49190612b82565b60405180910390fd5b845f8103611a37576040517f592cd3d200000000000000000000000000000000000000000000000000000000815260040160405180910390fd5b845f8103611a71576040517f592cd3d200000000000000000000000000000000000000000000000000000000815260040160405180910390fd5b611baa877f000000000000000000000000000000000000000000000000000000000000000073ffffffffffffffffffffffffffffffffffffffff166370a08231306040518263ffffffff1660e01b8152600401611ace9190612baa565b602060405180830381865afa158015611ae9573d5f803e3d5ffd5b505050506040513d601f19601f82011682018060405250810190611b0d9190612df9565b7f000000000000000000000000000000000000000000000000000000000000000073ffffffffffffffffffffffffffffffffffffffff166370a08231306040518263ffffffff1660e01b8152600401611b669190612baa565b602060405180830381865afa158015611b81573d5f803e3d5ffd5b505050506040513d601f19601f82011682018060405250810190611ba59190612df9565b611c0e565b935085841115611bf157866040517f5eabd746000000000000000000000000000000000000000000000000000000008152600401611be89190612b82565b60405180910390fd5b611bfb8488611cf9565b5050509392505050565b5f6103e8905090565b5f835f8103611c49576040517f592cd3d200000000000000000000000000000000000000000000000000000000815260040160405180910390fd5b825f8103611c83576040517f592cd3d200000000000000000000000000000000000000000000000000000000815260040160405180910390fd5b5f6103e88787611c939190612e78565b611c9d9190612e78565b90505f60036103e8611caf9190612f16565b8887611cbb9190612f16565b611cc59190612e78565b90508082611cd39190612ee6565b9450505050509392505050565b5f33905090565b611cf4838383600161224a565b505050565b3373ffffffffffffffffffffffffffffffffffffffff167f7a838780f54665d8b51c1be6c0c4575866ebb6b47b10a3c362ffde44727e50fb8284604051611d41929190612e24565b60405180910390a2611d9433827f000000000000000000000000000000000000000000000000000000000000000073ffffffffffffffffffffffffffffffffffffffff166121cb9092919063ffffffff16565b611de13330847f000000000000000000000000000000000000000000000000000000000000000073ffffffffffffffffffffffffffffffffffffffff16612419909392919063ffffffff16565b5050565b5f611df08484611934565b90507fffffffffffffffffffffffffffffffffffffffffffffffffffffffffffffffff8114611e715781811015611e62578281836040517ffb8f41b2000000000000000000000000000000000000000000000000000000008152600401611e5993929190612f7c565b60405180910390fd5b611e7084848484035f61224a565b5b50505050565b5f73ffffffffffffffffffffffffffffffffffffffff168373ffffffffffffffffffffffffffffffffffffffff1603611ee7575f6040517f96c6fd1e000000000000000000000000000000000000000000000000000000008152600401611ede9190612baa565b60405180910390fd5b5f73ffffffffffffffffffffffffffffffffffffffff168273ffffffffffffffffffffffffffffffffffffffff1603611f57575f6040517fec442f05000000000000000000000000000000000000000000000000000000008152600401611f4e9190612baa565b60405180910390fd5b611f6283838361249b565b505050565b611f7133826126b4565b3373ffffffffffffffffffffffffffffffffffffffff167fac1d76749e5447b7b16f5ab61447e1bd502f3bb4807af3b28e620d1700a6ee458484604051611fb9929190612e24565b60405180910390a261200e3330857f000000000000000000000000000000000000000000000000000000000000000073ffffffffffffffffffffffffffffffffffffffff16612419909392919063ffffffff16565b61205b3330847f000000000000000000000000000000000000000000000000000000000000000073ffffffffffffffffffffffffffffffffffffffff16612419909392919063ffffffff16565b505050565b3373ffffffffffffffffffffffffffffffffffffffff167f41a451b37a1c59de18465135b11217962a16fc9f647e54601509e0db0476f9f183836040516120a8929190612e24565b60405180910390a26120fd3330847f000000000000000000000000000000000000000000000000000000000000000073ffffffffffffffffffffffffffffffffffffffff16612419909392919063ffffffff16565b61214833827f000000000000000000000000000000000000000000000000000000000000000073ffffffffffffffffffffffffffffffffffffffff166121cb9092919063ffffffff16565b5050565b5f73ffffffffffffffffffffffffffffffffffffffff168273ffffffffffffffffffffffffffffffffffffffff16036121bc575f6040517f96c6fd1e0000000000000000000000000000000000000000000000000000000081526004016121b39190612baa565b60405180910390fd5b6121c7825f8361249b565b5050565b612245838473ffffffffffffffffffffffffffffffffffffffff1663a9059cbb85856040516024016121fe929190612fb1565b604051602081830303815290604052915060e01b6020820180517bffffffffffffffffffffffffffffffffffffffffffffffffffffffff8381831617835250505050612733565b505050565b5f73ffffffffffffffffffffffffffffffffffffffff168473ffffffffffffffffffffffffffffffffffffffff16036122ba575f6040517fe602df050000000000000000000000000000000000000000000000000000000081526004016122b19190612baa565b60405180910390fd5b5f73ffffffffffffffffffffffffffffffffffffffff168373ffffffffffffffffffffffffffffffffffffffff160361232a575f6040517f94280d620000000000000000000000000000000000000000000000000000000081526004016123219190612baa565b60405180910390fd5b8160015f8673ffffffffffffffffffffffffffffffffffffffff1673ffffffffffffffffffffffffffffffffffffffff1681526020019081526020015f205f8573ffffffffffffffffffffffffffffffffffffffff1673ffffffffffffffffffffffffffffffffffffffff1681526020019081526020015f20819055508015612413578273ffffffffffffffffffffffffffffffffffffffff168473ffffffffffffffffffffffffffffffffffffffff167f8c5be1e5ebec7d5bd14f71427d1e84f3dd0314c0f7b2291e5b200ac8c7c3b9258460405161240a9190612b82565b60405180910390a35b50505050565b612495848573ffffffffffffffffffffffffffffffffffffffff166323b872dd86868660405160240161244e93929190612fd8565b604051602081830303815290604052915060e01b6020820180517bffffffffffffffffffffffffffffffffffffffffffffffffffffffff8381831617835250505050612733565b50505050565b5f73ffffffffffffffffffffffffffffffffffffffff168373ffffffffffffffffffffffffffffffffffffffff16036124eb578060025f8282546124df9190612f49565b925050819055506125b9565b5f805f8573ffffffffffffffffffffffffffffffffffffffff1673ffffffffffffffffffffffffffffffffffffffff1681526020019081526020015f2054905081811015612574578381836040517fe450d38c00000000000000000000000000000000000000000000000000000000815260040161256b93929190612f7c565b60405180910390fd5b8181035f808673ffffffffffffffffffffffffffffffffffffffff1673ffffffffffffffffffffffffffffffffffffffff1681526020019081526020015f2081905550505b5f73ffffffffffffffffffffffffffffffffffffffff168273ffffffffffffffffffffffffffffffffffffffff1603612600578060025f828254039250508190555061264a565b805f808473ffffffffffffffffffffffffffffffffffffffff1673ffffffffffffffffffffffffffffffffffffffff1681526020019081526020015f205f82825401925050819055505b8173ffffffffffffffffffffffffffffffffffffffff168373ffffffffffffffffffffffffffffffffffffffff167fddf252ad1be2c89b69c2b068fc378daa952ba7f163c4a11628f55a4df523b3ef836040516126a79190612b82565b60405180910390a3505050565b5f73ffffffffffffffffffffffffffffffffffffffff168273ffffffffffffffffffffffffffffffffffffffff1603612724575f6040517fec442f0500000000000000000000000000000000000000000000000000000000815260040161271b9190612baa565b60405180910390fd5b61272f5f838361249b565b5050565b5f61275d828473ffffffffffffffffffffffffffffffffffffffff166127c890919063ffffffff16565b90505f81511415801561278157508080602001905181019061277f9190613037565b155b156127c357826040517f5274afe70000000000000000000000000000000000000000000000000000000081526004016127ba9190612baa565b60405180910390fd5b505050565b60606127d583835f6127dd565b905092915050565b60608147101561282457306040517fcd78605900000000000000000000000000000000000000000000000000000000815260040161281b9190612baa565b60405180910390fd5b5f808573ffffffffffffffffffffffffffffffffffffffff16848660405161284c91906130a6565b5f6040518083038185875af1925050503d805f8114612886576040519150601f19603f3d011682016040523d82523d5f602084013e61288b565b606091505b509150915061289b8683836128a6565b925050509392505050565b6060826128bb576128b682612933565b61292b565b5f82511480156128e157505f8473ffffffffffffffffffffffffffffffffffffffff163b145b1561292357836040517f9996b31500000000000000000000000000000000000000000000000000000000815260040161291a9190612baa565b60405180910390fd5b81905061292c565b5b9392505050565b5f815111156129455780518082602001fd5b6040517f1425ea4200000000000000000000000000000000000000000000000000000000815260040160405180910390fd5b5f81519050919050565b5f82825260208201905092915050565b5f5b838110156129ae578082015181840152602081019050612993565b5f8484015250505050565b5f601f19601f8301169050919050565b5f6129d382612977565b6129dd8185612981565b93506129ed818560208601612991565b6129f6816129b9565b840191505092915050565b5f6020820190508181035f830152612a1981846129c9565b905092915050565b5f80fd5b5f73ffffffffffffffffffffffffffffffffffffffff82169050919050565b5f612a4e82612a25565b9050919050565b612a5e81612a44565b8114612a68575f80fd5b50565b5f81359050612a7981612a55565b92915050565b5f819050919050565b612a9181612a7f565b8114612a9b575f80fd5b50565b5f81359050612aac81612a88565b92915050565b5f8060408385031215612ac857612ac7612a21565b5b5f612ad585828601612a6b565b9250506020612ae685828601612a9e565b9150509250929050565b5f8115159050919050565b612b0481612af0565b82525050565b5f602082019050612b1d5f830184612afb565b92915050565b5f805f60608486031215612b3a57612b39612a21565b5b5f612b4786828701612a9e565b9350506020612b5886828701612a9e565b9250506040612b6986828701612a9e565b9150509250925092565b612b7c81612a7f565b82525050565b5f602082019050612b955f830184612b73565b92915050565b612ba481612a44565b82525050565b5f602082019050612bbd5f830184612b9b565b92915050565b5f805f60608486031215612bda57612bd9612a21565b5b5f612be786828701612a6b565b9350506020612bf886828701612a6b565b9250506040612c0986828701612a9e565b9150509250925092565b5f805f8060808587031215612c2b57612c2a612a21565b5b5f612c3887828801612a9e565b9450506020612c4987828801612a9e565b9350506040612c5a87828801612a9e565b9250506060612c6b87828801612a9e565b91505092959194509250565b5f60ff82169050919050565b612c8c81612c77565b82525050565b5f602082019050612ca55f830184612c83565b92915050565b5f819050919050565b5f612cce612cc9612cc484612a25565b612cab565b612a25565b9050919050565b5f612cdf82612cb4565b9050919050565b5f612cf082612cd5565b9050919050565b612d0081612ce6565b82525050565b5f602082019050612d195f830184612cf7565b92915050565b5f60208284031215612d3457612d33612a21565b5b5f612d4184828501612a6b565b91505092915050565b5f8060408385031215612d6057612d5f612a21565b5b5f612d6d85828601612a6b565b9250506020612d7e85828601612a6b565b9150509250929050565b7f4e487b71000000000000000000000000000000000000000000000000000000005f52602260045260245ffd5b5f6002820490506001821680612dcc57607f821691505b602082108103612ddf57612dde612d88565b5b50919050565b5f81519050612df381612a88565b92915050565b5f60208284031215612e0e57612e0d612a21565b5b5f612e1b84828501612de5565b91505092915050565b5f604082019050612e375f830185612b73565b612e446020830184612b73565b9392505050565b7f4e487b71000000000000000000000000000000000000000000000000000000005f52601160045260245ffd5b5f612e8282612a7f565b9150612e8d83612a7f565b9250828202612e9b81612a7f565b91508282048414831517612eb257612eb1612e4b565b5b5092915050565b7f4e487b71000000000000000000000000000000000000000000000000000000005f52601260045260245ffd5b5f612ef082612a7f565b9150612efb83612a7f565b925082612f0b57612f0a612eb9565b5b828204905092915050565b5f612f2082612a7f565b9150612f2b83612a7f565b9250828203905081811115612f4357612f42612e4b565b5b92915050565b5f612f5382612a7f565b9150612f5e83612a7f565b9250828201905080821115612f7657612f75612e4b565b5b92915050565b5f606082019050612f8f5f830186612b9b565b612f9c6020830185612b73565b612fa96040830184612b73565b949350505050565b5f604082019050612fc45f830185612b9b565b612fd16020830184612b73565b9392505050565b5f606082019050612feb5f830186612b9b565b612ff86020830185612b9b565b6130056040830184612b73565b949350505050565b61301681612af0565b8114613020575f80fd5b50565b5f815190506130318161300d565b92915050565b5f6020828403121561304c5761304b612a21565b5b5f61305984828501613023565b91505092915050565b5f81519050919050565b5f81905092915050565b5f61308082613062565b61308a818561306c565b935061309a818560208601612991565b80840191505092915050565b5f6130b18284613076565b91508190509291505056fea2646970667358221220d1f89ef07eba06a1e3ff0f81551c6d4ea0c29989000e368fe7e84a4de239702d64736f6c63430008140033a2646970667358221220bac831332ea172b9ffdc389d3425314b72e7dc178732123803d21a1ee7dea8a064736f6c63430008140033","linkReferences":{}},"methodIdentifiers":{"createPool(address)":"9049f9d2","getPool(address)":"bbe4f6db","getToken(address)":"59770438","i_weth()":"4dbe7e92"},"id":45}