{"abi":[{"type":"function","name":"createPool","inputs":[{"name":"tokenAddress","type":"address","internalType":"address"}],"outputs":[{"name":"","type":"address","internalType":"address"}],"stateMutability":"nonpayable"},{"type":"function","name":"getPool","inputs":[{"name":"tokenAddress","type":"address","internalType":"address"}],"outputs":[{"name":"","type":"address","internalType":"address"}],"stateMutability":"view"},{"type":"error","name":"PoolFactory__PoolAlreadyExists","inputs":[{"name":"tokenAddress","type":"address","internalType":"address"}]}],"bytecode":{"object":"0x608060405234801561000f575f80fd5b506104b48061001d5f395ff3fe608060405234801561000f575f80fd5b5060043610610034575f3560e01c80639049f9d214610038578063bbe4f6db14610068575b5f80fd5b610052600480360381019061004d9190610359565b610098565b60405161005f9190610393565b60405180910390f35b610082600480360381019061007d9190610359565b61028b565b60405161008f9190610393565b60405180910390f35b5f8073ffffffffffffffffffffffffffffffffffffffff165f808473ffffffffffffffffffffffffffffffffffffffff1673ffffffffffffffffffffffffffffffffffffffff1681526020019081526020015f205f9054906101000a900473ffffffffffffffffffffffffffffffffffffffff1673ffffffffffffffffffffffffffffffffffffffff161461016457816040517f50df0b2b00000000000000000000000000000000000000000000000000000000815260040161015b9190610393565b60405180910390fd5b5f604051610171906102ef565b604051809103905ff08015801561018a573d5f803e3d5ffd5b509050805f808573ffffffffffffffffffffffffffffffffffffffff1673ffffffffffffffffffffffffffffffffffffffff1681526020019081526020015f205f6101000a81548173ffffffffffffffffffffffffffffffffffffffff021916908373ffffffffffffffffffffffffffffffffffffffff1602179055508260015f8373ffffffffffffffffffffffffffffffffffffffff1673ffffffffffffffffffffffffffffffffffffffff1681526020019081526020015f205f6101000a81548173ffffffffffffffffffffffffffffffffffffffff021916908373ffffffffffffffffffffffffffffffffffffffff16021790555080915050919050565b5f805f8373ffffffffffffffffffffffffffffffffffffffff1673ffffffffffffffffffffffffffffffffffffffff1681526020019081526020015f205f9054906101000a900473ffffffffffffffffffffffffffffffffffffffff169050919050565b60d2806103ad83390190565b5f80fd5b5f73ffffffffffffffffffffffffffffffffffffffff82169050919050565b5f610328826102ff565b9050919050565b6103388161031e565b8114610342575f80fd5b50565b5f813590506103538161032f565b92915050565b5f6020828403121561036e5761036d6102fb565b5b5f61037b84828501610345565b91505092915050565b61038d8161031e565b82525050565b5f6020820190506103a65f830184610384565b9291505056fe608060405234801561000f575f80fd5b5060b68061001c5f395ff3fe6080604052348015600e575f80fd5b50600436106026575f3560e01c8063b7e7fdcc14602a575b5f80fd5b60306044565b604051603b91906069565b60405180910390f35b5f670de0b6b3a7640000905090565b5f819050919050565b6063816053565b82525050565b5f602082019050607a5f830184605c565b9291505056fea264697066735822122013ada2a858d0732416ded5d44880640820ff64eac933dc76b4acc06aa37cc94264736f6c63430008140033a2646970667358221220b137b60478e520f0e347255b8c21388d023a15a0375deb3a740c88a02b72615e64736f6c63430008140033","linkReferences":{}},"methodIdentifiers":{"createPool(address)":"9049f9d2","getPool(address)":"bbe4f6db"},"id":47}