{"src/protocol/ThunderLoan.sol":{"ThunderLoan":{"abi":[{"type":"constructor","inputs":[],"stateMutability":"nonpayable"},{"type":"function","name":"UPGRADE_INTERFACE_VERSION","inputs":[],"outputs":[{"name":"","type":"string","internalType":"string"}],"stateMutability":"view"},{"type":"function","name":"deposit","inputs":[{"name":"token","type":"address","internalType":"contract IERC20"},{"name":"amount","type":"uint256","internalType":"uint256"}],"outputs":[],"stateMutability":"nonpayable"},{"type":"function","name":"flashloan","inputs":[{"name":"receiverAddress","type":"address","internalType":"address"},{"name":"token","type":"address","internalType":"contract IERC20"},{"name":"amount","type":"uint256","internalType":"uint256"},{"name":"params","type":"bytes","internalType":"bytes"}],"outputs":[],"stateMutability":"nonpayable"},{"type":"function","name":"getAssetFromToken","inputs":[{"name":"token","type":"address","internalType":"contract IERC20"}],"outputs":[{"name":"","type":"address","internalType":"contract AssetToken"}],"stateMutability":"view"},{"type":"function","name":"getCalculatedFee","inputs":[{"name":"token","type":"address","internalType":"contract IERC20"},{"name":"amount","type":"uint256","internalType":"uint256"}],"outputs":[{"name":"fee","type":"uint256","internalType":"uint256"}],"stateMutability":"view"},{"type":"function","name":"getFee","inputs":[],"outputs":[{"name":"","type":"uint256","internalType":"uint256"}],"stateMutability":"view"},{"type":"function","name":"getFeePrecision","inputs":[],"outputs":[{"name":"","type":"uint256","internalType":"uint256"}],"stateMutability":"view"},{"type":"function","name":"getPoolFactoryAddress","inputs":[],"outputs":[{"name":"","type":"address","internalType":"address"}],"stateMutability":"view"},{"type":"function","name":"getPrice","inputs":[{"name":"token","type":"address","internalType":"address"}],"outputs":[{"name":"","type":"uint256","internalType":"uint256"}],"stateMutability":"view"},{"type":"function","name":"getPriceInWeth","inputs":[{"name":"token","type":"address","internalType":"address"}],"outputs":[{"name":"","type":"uint256","internalType":"uint256"}],"stateMutability":"view"},{"type":"function","name":"initialize","inputs":[{"name":"tswapAddress","type":"address","internalType":"address"}],"outputs":[],"stateMutability":"nonpayable"},{"type":"function","name":"isAllowedToken","inputs":[{"name":"token","type":"address","internalType":"contract IERC20"}],"outputs":[{"name":"","type":"bool","internalType":"bool"}],"stateMutability":"view"},{"type":"function","name":"isCurrentlyFlashLoaning","inputs":[{"name":"token","type":"address","internalType":"contract IERC20"}],"outputs":[{"name":"","type":"bool","internalType":"bool"}],"stateMutability":"view"},{"type":"function","name":"owner","inputs":[],"outputs":[{"name":"","type":"address","internalType":"address"}],"stateMutability":"view"},{"type":"function","name":"proxiableUUID","inputs":[],"outputs":[{"name":"","type":"bytes32","internalType":"bytes32"}],"stateMutability":"view"},{"type":"function","name":"redeem","inputs":[{"name":"token","type":"address","internalType":"contract IERC20"},{"name":"amountOfAssetToken","type":"uint256","internalType":"uint256"}],"outputs":[],"stateMutability":"nonpayable"},{"type":"function","name":"renounceOwnership","inputs":[],"outputs":[],"stateMutability":"nonpayable"},{"type":"function","name":"repay","inputs":[{"name":"token","type":"address","internalType":"contract IERC20"},{"name":"amount","type":"uint256","internalType":"uint256"}],"outputs":[],"stateMutability":"nonpayable"},{"type":"function","name":"s_tokenToAssetToken","inputs":[{"name":"","type":"address","internalType":"contract IERC20"}],"outputs":[{"name":"","type":"address","internalType":"contract AssetToken"}],"stateMutability":"view"},{"type":"function","name":"setAllowedToken","inputs":[{"name":"token","type":"address","internalType":"contract IERC20"},{"name":"allowed","type":"bool","internalType":"bool"}],"outputs":[{"name":"","type":"address","internalType":"contract AssetToken"}],"stateMutability":"nonpayable"},{"type":"function","name":"transferOwnership","inputs":[{"name":"newOwner","type":"address","internalType":"address"}],"outputs":[],"stateMutability":"nonpayable"},{"type":"function","name":"updateFlashLoanFee","inputs":[{"name":"newFee","type":"uint256","internalType":"uint256"}],"outputs":[],"stateMutability":"nonpayable"},{"type":"function","name":"upgradeToAndCall","inputs":[{"name":"newImplementation","type":"address","internalType":"address"},{"name":"data","type":"bytes","internalType":"bytes"}],"outputs":[],"stateMutability":"payable"},{"type":"event","name":"AllowedTokenSet","inputs":[{"name":"token","type":"address","indexed":true,"internalType":"contract IERC20"},{"name":"asset","type":"address","indexed":true,"internalType":"contract AssetToken"},{"name":"allowed","type":"bool","indexed":false,"internalType":"bool"}],"anonymous":false},{"type":"event","name":"Deposit","inputs":[{"name":"account","type":"address","indexed":true,"internalType":"address"},{"name":"token","type":"address","indexed":true,"internalType":"contract IERC20"},{"name":"amount","type":"uint256","indexed":false,"internalType":"uint256"}],"anonymous":false},{"type":"event","name":"FlashLoan","inputs":[{"name":"receiverAddress","type":"address","indexed":true,"internalType":"address"},{"name":"token","type":"address","indexed":true,"internalType":"contract IERC20"},{"name":"amount","type":"uint256","indexed":false,"internalType":"uint256"},{"name":"fee","type":"uint256","indexed":false,"internalType":"uint256"},{"name":"params","type":"bytes","indexed":false,"internalType":"bytes"}],"anonymous":false},{"type":"event","name":"Initialized","inputs":[{"name":"version","type":"uint64","indexed":false,"internalType":"uint64"}],"anonymous":false},{"type":"event","name":"OwnershipTransferred","inputs":[{"name":"previousOwner","type":"address","indexed":true,"internalType":"address"},{"name":"newOwner","type":"address","indexed":true,"internalType":"address"}],"anonymous":false},{"type":"event","name":"Redeemed","inputs":[{"name":"account","type":"address","indexed":true,"internalType":"address"},{"name":"token","type":"address","indexed":true,"internalType":"contract IERC20"},{"name":"amountOfAssetToken","type":"uint256","indexed":false,"internalType":"uint256"},{"name":"amountOfUnderlying","type":"uint256","indexed":false,"internalType":"uint256"}],"anonymous":false},{"type":"event","name":"Upgraded","inputs":[{"name":"implementation","type":"address","indexed":true,"internalType":"address"}],"anonymous":false},{"type":"error","name":"AddressEmptyCode","inputs":[{"name":"target","type":"address","internalType":"address"}]},{"type":"error","name":"AddressInsufficientBalance","inputs":[{"name":"account","type":"address","internalType":"address"}]},{"type":"error","name":"ERC1967InvalidImplementation","inputs":[{"name":"implementation","type":"address","internalType":"address"}]},{"type":"error","name":"ERC1967NonPayable","inputs":[]},{"type":"error","name":"FailedInnerCall","inputs":[]},{"type":"error","name":"InvalidInitialization","inputs":[]},{"type":"error","name":"NotInitializing","inputs":[]},{"type":"error","name":"OwnableInvalidOwner","inputs":[{"name":"owner","type":"address","internalType":"address"}]},{"type":"error","name":"OwnableUnauthorizedAccount","inputs":[{"name":"account","type":"address","internalType":"address"}]},{"type":"error","name":"SafeERC20FailedOperation","inputs":[{"name":"token","type":"address","internalType":"address"}]},{"type":"error","name":"ThunderLoan__AlreadyAllowed","inputs":[]},{"type":"error","name":"ThunderLoan__BadNewFee","inputs":[]},{"type":"error","name":"ThunderLoan__CallerIsNotContract","inputs":[]},{"type":"error","name":"ThunderLoan__CantBeZero","inputs":[]},{"type":"error","name":"ThunderLoan__ExhangeRateCanOnlyIncrease","inputs":[]},{"type":"error","name":"ThunderLoan__NotAllowedToken","inputs":[{"name":"token","type":"address","internalType":"contract IERC20"}]},{"type":"error","name":"ThunderLoan__NotCurrentlyFlashLoaning","inputs":[]},{"type":"error","name":"ThunderLoan__NotEnoughTokenBalance","inputs":[{"name":"startingBalance","type":"uint256","internalType":"uint256"},{"name":"amount","type":"uint256","internalType":"uint256"}]},{"type":"error","name":"ThunderLoan__NotPaidBack","inputs":[{"name":"expectedEndingBalance","type":"uint256","internalType":"uint256"},{"name":"endingBalance","type":"uint256","internalType":"uint256"}]},{"type":"error","name":"UUPSUnauthorizedCallContext","inputs":[]},{"type":"error","name":"UUPSUnsupportedProxiableUUID","inputs":[{"name":"slot","type":"bytes32","internalType":"bytes32"}]}],"userdoc":{},"devdoc":{},"evm":{"bytecode":{"object":"60a06040523073ffffffffffffffffffffffffffffffffffffffff1660809073ffffffffffffffffffffffffffffffffffffffff1681525034801562000043575f80fd5b50620000546200005a60201b60201c565b620001c4565b5f6200006b6200015e60201b60201c565b9050805f0160089054906101000a900460ff1615620000b6576040517ff92ee8a900000000000000000000000000000000000000000000000000000000815260040160405180910390fd5b67ffffffffffffffff8016815f015f9054906101000a900467ffffffffffffffff1667ffffffffffffffff16146200015b5767ffffffffffffffff815f015f6101000a81548167ffffffffffffffff021916908367ffffffffffffffff1602179055507fc7f505b2f371ae2175ee4913f4499e1f2633a7b5936321eed1cdaeb6115181d267ffffffffffffffff604051620001529190620001a9565b60405180910390a15b50565b5f7ff0c57e16840df040f15088dc2f81fe391c3923bec73e23a9662efc9c229c6a00905090565b5f67ffffffffffffffff82169050919050565b620001a38162000185565b82525050565b5f602082019050620001be5f83018462000198565b92915050565b6080516158c3620001eb5f395f8181611f7c01528181611fd2015261219c01526158c35ff3fe6080604052600436106200015d575f3560e01c806367ebd73811620000c6578063ad3cb1cc1162000078578063ad3cb1cc14620004df578063c4d66de8146200050e578063cbe230c3146200053b578063ced72f87146200057e578063d856687414620005ad578063f2fde38b14620005da576200015d565b806367ebd738146200039f57806370a1ed8914620003e2578063715018a614620004255780638aaa2284146200043e5780638da5cb5b14620004815780638f3443cb14620004b0576200015d565b806341976e09116200012057806341976e09146200027057806346638b1014620002b357806347e7ef2414620002f65780634f1ef286146200032357806352d1902d146200034357806363ad2c411462000372576200015d565b80631e9a6950146200016157806322867d78146200018e5780632537d32414620001bb5780632d85a7db14620001ea578063396ecd78146200022d575b5f80fd5b3480156200016d575f80fd5b506200018c600480360381019062000186919062002ae5565b62000607565b005b3480156200019a575f80fd5b50620001b96004803603810190620001b3919062002ae5565b620009e4565b005b348015620001c7575f80fd5b50620001d262000af9565b604051620001e1919062002b3b565b60405180910390f35b348015620001f6575f80fd5b506200021560048036038101906200020f919062002ae5565b62000b02565b60405162000224919062002b3b565b60405180910390f35b34801562000239575f80fd5b5062000258600480360381019062000252919062002b56565b62000b55565b60405162000267919062002ba2565b60405180910390f35b3480156200027c575f80fd5b506200029b600480360381019062000295919062002bec565b62000ba7565b604051620002aa919062002b3b565b60405180910390f35b348015620002bf575f80fd5b50620002de6004803603810190620002d8919062002b56565b62000bba565b604051620002ed919062002c83565b60405180910390f35b34801562000302575f80fd5b506200032160048036038101906200031b919062002ae5565b62000c1f565b005b6200034160048036038101906200033b919062002df6565b62000f8f565b005b3480156200034f575f80fd5b506200035a62000fb4565b60405162000369919062002e74565b60405180910390f35b3480156200037e575f80fd5b506200039d600480360381019062000397919062002ef5565b62000fe7565b005b348015620003ab575f80fd5b50620003ca6004803603810190620003c4919062002b56565b62001566565b604051620003d9919062002c83565b60405180910390f35b348015620003ee575f80fd5b506200040d600480360381019062000407919062002bec565b62001596565b6040516200041c919062002b3b565b60405180910390f35b34801562000431575f80fd5b506200043c620016ae565b005b3480156200044a575f80fd5b5062000469600480360381019062000463919062002fb6565b620016c5565b60405162000478919062002c83565b60405180910390f35b3480156200048d575f80fd5b506200049862001b25565b604051620004a791906200300c565b60405180910390f35b348015620004bc575f80fd5b50620004c762001b5c565b604051620004d691906200300c565b60405180910390f35b348015620004eb575f80fd5b50620004f662001b83565b604051620005059190620030ab565b60405180910390f35b3480156200051a575f80fd5b5062000539600480360381019062000533919062002bec565b62001bbc565b005b34801562000547575f80fd5b5062000566600480360381019062000560919062002b56565b62001d7b565b60405162000575919062002ba2565b60405180910390f35b3480156200058a575f80fd5b506200059562001e0f565b604051620005a4919062002b3b565b60405180910390f35b348015620005b9575f80fd5b50620005d86004803603810190620005d29190620030cd565b62001e18565b005b348015620005e6575f80fd5b50620006056004803603810190620005ff919062002bec565b62001e69565b005b805f810362000642576040517f6df6d1fc00000000000000000000000000000000000000000000000000000000815260040160405180910390fd5b826200064e8162001d7b565b6200069257806040517f83ebfce700000000000000000000000000000000000000000000000000000000815260040162000689919062003121565b60405180910390fd5b5f60015f8673ffffffffffffffffffffffffffffffffffffffff1673ffffffffffffffffffffffffffffffffffffffff1681526020019081526020015f205f9054906101000a900473ffffffffffffffffffffffffffffffffffffffff1690505f8173ffffffffffffffffffffffffffffffffffffffff1663e6aa216c6040518163ffffffff1660e01b8152600401602060405180830381865afa1580156200073d573d5f803e3d5ffd5b505050506040513d601f19601f8201168201806040525081019062000763919062003152565b90507fffffffffffffffffffffffffffffffffffffffffffffffffffffffffffffffff85036200080d578173ffffffffffffffffffffffffffffffffffffffff166370a08231336040518263ffffffff1660e01b8152600401620007c891906200300c565b602060405180830381865afa158015620007e4573d5f803e3d5ffd5b505050506040513d601f19601f820116820180604052508101906200080a919062003152565b94505b5f8273ffffffffffffffffffffffffffffffffffffffff16633a01b9646040518163ffffffff1660e01b8152600401602060405180830381865afa15801562000858573d5f803e3d5ffd5b505050506040513d601f19601f820116820180604052508101906200087e919062003152565b82876200088c9190620031af565b62000898919062003226565b90508673ffffffffffffffffffffffffffffffffffffffff163373ffffffffffffffffffffffffffffffffffffffff167f5cdf07ad0fc222442720b108e3ed4c4640f0fadc2ab2253e66f259a0fea834808884604051620008fb9291906200325d565b60405180910390a38273ffffffffffffffffffffffffffffffffffffffff16639dc29fac33886040518363ffffffff1660e01b81526004016200094092919062003288565b5f604051808303815f87803b15801562000958575f80fd5b505af11580156200096b573d5f803e3d5ffd5b505050508273ffffffffffffffffffffffffffffffffffffffff16634efecaa533836040518363ffffffff1660e01b8152600401620009ac92919062003288565b5f604051808303815f87803b158015620009c4575f80fd5b505af1158015620009d7573d5f803e3d5ffd5b5050505050505050505050565b60045f8373ffffffffffffffffffffffffffffffffffffffff1673ffffffffffffffffffffffffffffffffffffffff1681526020019081526020015f205f9054906101000a900460ff1662000a65576040517f39dd70c300000000000000000000000000000000000000000000000000000000815260040160405180910390fd5b5f60015f8473ffffffffffffffffffffffffffffffffffffffff1673ffffffffffffffffffffffffffffffffffffffff1681526020019081526020015f205f9054906101000a900473ffffffffffffffffffffffffffffffffffffffff16905062000af43382848673ffffffffffffffffffffffffffffffffffffffff1662001ef4909392919063ffffffff16565b505050565b5f600254905090565b5f8060025462000b128562001596565b8462000b1f9190620031af565b62000b2b919062003226565b90506002546003548262000b409190620031af565b62000b4c919062003226565b91505092915050565b5f60045f8373ffffffffffffffffffffffffffffffffffffffff1673ffffffffffffffffffffffffffffffffffffffff1681526020019081526020015f205f9054906101000a900460ff169050919050565b5f62000bb38262001596565b9050919050565b5f60015f8373ffffffffffffffffffffffffffffffffffffffff1673ffffffffffffffffffffffffffffffffffffffff1681526020019081526020015f205f9054906101000a900473ffffffffffffffffffffffffffffffffffffffff169050919050565b805f810362000c5a576040517f6df6d1fc00000000000000000000000000000000000000000000000000000000815260040160405180910390fd5b8262000c668162001d7b565b62000caa57806040517f83ebfce700000000000000000000000000000000000000000000000000000000815260040162000ca1919062003121565b60405180910390fd5b5f60015f8673ffffffffffffffffffffffffffffffffffffffff1673ffffffffffffffffffffffffffffffffffffffff1681526020019081526020015f205f9054906101000a900473ffffffffffffffffffffffffffffffffffffffff1690505f8173ffffffffffffffffffffffffffffffffffffffff1663e6aa216c6040518163ffffffff1660e01b8152600401602060405180830381865afa15801562000d55573d5f803e3d5ffd5b505050506040513d601f19601f8201168201806040525081019062000d7b919062003152565b90505f818373ffffffffffffffffffffffffffffffffffffffff16633a01b9646040518163ffffffff1660e01b8152600401602060405180830381865afa15801562000dc9573d5f803e3d5ffd5b505050506040513d601f19601f8201168201806040525081019062000def919062003152565b8762000dfc9190620031af565b62000e08919062003226565b90508673ffffffffffffffffffffffffffffffffffffffff163373ffffffffffffffffffffffffffffffffffffffff167f5548c837ab068cf56a2c2479df0882a4922fd203edb7517321831d95078c5f628860405162000e69919062002b3b565b60405180910390a38273ffffffffffffffffffffffffffffffffffffffff166340c10f1933836040518363ffffffff1660e01b815260040162000eae92919062003288565b5f604051808303815f87803b15801562000ec6575f80fd5b505af115801562000ed9573d5f803e3d5ffd5b505050505f62000eea888862000b02565b90508373ffffffffffffffffffffffffffffffffffffffff1663b9e205ae826040518263ffffffff1660e01b815260040162000f27919062002b3b565b5f604051808303815f87803b15801562000f3f575f80fd5b505af115801562000f52573d5f803e3d5ffd5b5050505062000f853385898b73ffffffffffffffffffffffffffffffffffffffff1662001ef4909392919063ffffffff16565b5050505050505050565b62000f9962001f7a565b62000fa48262002064565b62000fb0828262002071565b5050565b5f62000fbf6200219a565b7f360894a13ba1a3210667c828492db98dca3e2076cc3735a920a3ca505d382bbc5f1b905090565b825f810362001022576040517f6df6d1fc00000000000000000000000000000000000000000000000000000000815260040160405180910390fd5b846200102e8162001d7b565b6200107257806040517f83ebfce700000000000000000000000000000000000000000000000000000000815260040162001069919062003121565b60405180910390fd5b5f60015f8873ffffffffffffffffffffffffffffffffffffffff1673ffffffffffffffffffffffffffffffffffffffff1681526020019081526020015f205f9054906101000a900473ffffffffffffffffffffffffffffffffffffffff1690505f8773ffffffffffffffffffffffffffffffffffffffff166370a08231836040518263ffffffff1660e01b81526004016200110e91906200300c565b602060405180830381865afa1580156200112a573d5f803e3d5ffd5b505050506040513d601f19601f8201168201806040525081019062001150919062003152565b9050808711156200119c5780876040517f374fa733000000000000000000000000000000000000000000000000000000008152600401620011939291906200325d565b60405180910390fd5b5f8973ffffffffffffffffffffffffffffffffffffffff163b03620011ed576040517f9e70e7c500000000000000000000000000000000000000000000000000000000815260040160405180910390fd5b5f620011fa898962000b02565b90508273ffffffffffffffffffffffffffffffffffffffff1663b9e205ae826040518263ffffffff1660e01b815260040162001237919062002b3b565b5f604051808303815f87803b1580156200124f575f80fd5b505af115801562001262573d5f803e3d5ffd5b505050508873ffffffffffffffffffffffffffffffffffffffff168a73ffffffffffffffffffffffffffffffffffffffff167fbeeba37359a9db8ffa59be6f1cb1fed1e2a24b099a4799630876ddb8c87eedb98a848b8b604051620012cb9493929190620032f5565b60405180910390a3600160045f8b73ffffffffffffffffffffffffffffffffffffffff1673ffffffffffffffffffffffffffffffffffffffff1681526020019081526020015f205f6101000a81548160ff0219169083151502179055508273ffffffffffffffffffffffffffffffffffffffff16634efecaa58b8a6040518363ffffffff1660e01b81526004016200136592919062003288565b5f604051808303815f87803b1580156200137d575f80fd5b505af115801562001390573d5f803e3d5ffd5b5050505062001420898983338b8b604051602401620013b59695949392919062003339565b604051602081830303815290604052631b11d0ff60e01b6020820180517bffffffffffffffffffffffffffffffffffffffffffffffffffffffff83818316178352505050508b73ffffffffffffffffffffffffffffffffffffffff166200222290919063ffffffff16565b505f8973ffffffffffffffffffffffffffffffffffffffff166370a08231856040518263ffffffff1660e01b81526004016200145d91906200300c565b602060405180830381865afa15801562001479573d5f803e3d5ffd5b505050506040513d601f19601f820116820180604052508101906200149f919062003152565b90508183620014af91906200339d565b81101562001505578183620014c591906200339d565b816040517f819969c0000000000000000000000000000000000000000000000000000000008152600401620014fc9291906200325d565b60405180910390fd5b5f60045f8c73ffffffffffffffffffffffffffffffffffffffff1673ffffffffffffffffffffffffffffffffffffffff1681526020019081526020015f205f6101000a81548160ff0219169083151502179055505050505050505050505050565b6001602052805f5260405f205f915054906101000a900473ffffffffffffffffffffffffffffffffffffffff1681565b5f805f8054906101000a900473ffffffffffffffffffffffffffffffffffffffff1673ffffffffffffffffffffffffffffffffffffffff1663bbe4f6db846040518263ffffffff1660e01b8152600401620015f291906200300c565b602060405180830381865afa1580156200160e573d5f803e3d5ffd5b505050506040513d601f19601f82011682018060405250810190620016349190620033ed565b90508073ffffffffffffffffffffffffffffffffffffffff1663b7e7fdcc6040518163ffffffff1660e01b8152600401602060405180830381865afa15801562001680573d5f803e3d5ffd5b505050506040513d601f19601f82011682018060405250810190620016a6919062003152565b915050919050565b620016b862002239565b620016c35f620022c9565b565b5f620016d062002239565b8115620019f4575f73ffffffffffffffffffffffffffffffffffffffff1660015f8573ffffffffffffffffffffffffffffffffffffffff1673ffffffffffffffffffffffffffffffffffffffff1681526020019081526020015f205f9054906101000a900473ffffffffffffffffffffffffffffffffffffffff1673ffffffffffffffffffffffffffffffffffffffff161462001799576040517ff3c9ddf400000000000000000000000000000000000000000000000000000000815260040160405180910390fd5b5f8373ffffffffffffffffffffffffffffffffffffffff166306fdde036040518163ffffffff1660e01b81526004015f60405180830381865afa158015620017e3573d5f803e3d5ffd5b505050506040513d5f823e3d601f19601f820116820180604052508101906200180d9190620034ce565b6040516020016200181f919062003583565b60405160208183030381529060405290505f8473ffffffffffffffffffffffffffffffffffffffff166395d89b416040518163ffffffff1660e01b81526004015f60405180830381865afa1580156200187a573d5f803e3d5ffd5b505050506040513d5f823e3d601f19601f82011682018060405250810190620018a49190620034ce565b604051602001620018b69190620035d2565b60405160208183030381529060405290505f30868484604051620018da9062002a1a565b620018e99493929190620035fb565b604051809103905ff08015801562001903573d5f803e3d5ffd5b5090508060015f8873ffffffffffffffffffffffffffffffffffffffff1673ffffffffffffffffffffffffffffffffffffffff1681526020019081526020015f205f6101000a81548173ffffffffffffffffffffffffffffffffffffffff021916908373ffffffffffffffffffffffffffffffffffffffff1602179055508073ffffffffffffffffffffffffffffffffffffffff168673ffffffffffffffffffffffffffffffffffffffff167fe4af36088768226b78a1f394c84aec456100e7ca2b04e36783f8e9a7cc79a0c287604051620019e0919062002ba2565b60405180910390a380935050505062001b1f565b5f60015f8573ffffffffffffffffffffffffffffffffffffffff1673ffffffffffffffffffffffffffffffffffffffff1681526020019081526020015f205f9054906101000a900473ffffffffffffffffffffffffffffffffffffffff16905060015f8573ffffffffffffffffffffffffffffffffffffffff1673ffffffffffffffffffffffffffffffffffffffff1681526020019081526020015f205f6101000a81549073ffffffffffffffffffffffffffffffffffffffff02191690558073ffffffffffffffffffffffffffffffffffffffff168473ffffffffffffffffffffffffffffffffffffffff167fe4af36088768226b78a1f394c84aec456100e7ca2b04e36783f8e9a7cc79a0c28560405162001b12919062002ba2565b60405180910390a3809150505b92915050565b5f8062001b316200239c565b9050805f015f9054906101000a900473ffffffffffffffffffffffffffffffffffffffff1691505090565b5f805f9054906101000a900473ffffffffffffffffffffffffffffffffffffffff16905090565b6040518060400160405280600581526020017f352e302e3000000000000000000000000000000000000000000000000000000081525081565b5f62001bc7620023c3565b90505f815f0160089054906101000a900460ff161590505f825f015f9054906101000a900467ffffffffffffffff1690505f808267ffffffffffffffff1614801562001c105750825b90505f60018367ffffffffffffffff1614801562001c4457505f3073ffffffffffffffffffffffffffffffffffffffff163b145b90508115801562001c53575080155b1562001c8b576040517ff92ee8a900000000000000000000000000000000000000000000000000000000815260040160405180910390fd5b6001855f015f6101000a81548167ffffffffffffffff021916908367ffffffffffffffff160217905550831562001cd9576001855f0160086101000a81548160ff0219169083151502179055505b62001ce433620023ea565b62001cee62002402565b62001cf9866200240e565b670de0b6b3a7640000600281905550660aa87bee538000600381905550831562001d73575f855f0160086101000a81548160ff0219169083151502179055507fc7f505b2f371ae2175ee4913f4499e1f2633a7b5936321eed1cdaeb6115181d2600160405162001d6a9190620036a8565b60405180910390a15b505050505050565b5f8073ffffffffffffffffffffffffffffffffffffffff1660015f8473ffffffffffffffffffffffffffffffffffffffff1673ffffffffffffffffffffffffffffffffffffffff1681526020019081526020015f205f9054906101000a900473ffffffffffffffffffffffffffffffffffffffff1673ffffffffffffffffffffffffffffffffffffffff1614159050919050565b5f600354905090565b62001e2262002239565b60025481111562001e5f576040517f958939ad00000000000000000000000000000000000000000000000000000000815260040160405180910390fd5b8060038190555050565b62001e7362002239565b5f73ffffffffffffffffffffffffffffffffffffffff168173ffffffffffffffffffffffffffffffffffffffff160362001ee6575f6040517f1e4fbdf700000000000000000000000000000000000000000000000000000000815260040162001edd91906200300c565b60405180910390fd5b62001ef181620022c9565b50565b62001f74848573ffffffffffffffffffffffffffffffffffffffff166323b872dd86868660405160240162001f2c93929190620036c3565b604051602081830303815290604052915060e01b6020820180517bffffffffffffffffffffffffffffffffffffffffffffffffffffffff838183161783525050505062002426565b50505050565b7f000000000000000000000000000000000000000000000000000000000000000073ffffffffffffffffffffffffffffffffffffffff163073ffffffffffffffffffffffffffffffffffffffff1614806200202a57507f000000000000000000000000000000000000000000000000000000000000000073ffffffffffffffffffffffffffffffffffffffff1662002011620024c3565b73ffffffffffffffffffffffffffffffffffffffff1614155b1562002062576040517fe07c8dba00000000000000000000000000000000000000000000000000000000815260040160405180910390fd5b565b6200206e62002239565b50565b8173ffffffffffffffffffffffffffffffffffffffff166352d1902d6040518163ffffffff1660e01b8152600401602060405180830381865afa925050508015620020dc57506040513d601f19601f82011682018060405250810190620020d991906200372d565b60015b6200212057816040517f4c9c8ce30000000000000000000000000000000000000000000000000000000081526004016200211791906200300c565b60405180910390fd5b7f360894a13ba1a3210667c828492db98dca3e2076cc3735a920a3ca505d382bbc5f1b81146200218957806040517faa1d49a400000000000000000000000000000000000000000000000000000000815260040162002180919062002e74565b60405180910390fd5b62002195838362002518565b505050565b7f000000000000000000000000000000000000000000000000000000000000000073ffffffffffffffffffffffffffffffffffffffff163073ffffffffffffffffffffffffffffffffffffffff161462002220576040517fe07c8dba00000000000000000000000000000000000000000000000000000000815260040160405180910390fd5b565b60606200223183835f62002592565b905092915050565b6200224362002664565b73ffffffffffffffffffffffffffffffffffffffff166200226362001b25565b73ffffffffffffffffffffffffffffffffffffffff1614620022c7576200228962002664565b6040517f118cdaa7000000000000000000000000000000000000000000000000000000008152600401620022be91906200300c565b60405180910390fd5b565b5f620022d46200239c565b90505f815f015f9054906101000a900473ffffffffffffffffffffffffffffffffffffffff16905082825f015f6101000a81548173ffffffffffffffffffffffffffffffffffffffff021916908373ffffffffffffffffffffffffffffffffffffffff1602179055508273ffffffffffffffffffffffffffffffffffffffff168173ffffffffffffffffffffffffffffffffffffffff167f8be0079c531659141344cd1fd0a4f28419497f9722a3daafe3b4186f6b6457e060405160405180910390a3505050565b5f7f9016d09d72d40fdae2fd8ceac6b6234c7706214fd39c1cd1e609a0528c199300905090565b5f7ff0c57e16840df040f15088dc2f81fe391c3923bec73e23a9662efc9c229c6a00905090565b620023f46200266b565b620023ff81620026ae565b50565b6200240c6200266b565b565b620024186200266b565b620024238162002739565b50565b5f62002452828473ffffffffffffffffffffffffffffffffffffffff166200222290919063ffffffff16565b90505f8151141580156200247957508080602001905181019062002477919062003773565b155b15620024be57826040517f5274afe7000000000000000000000000000000000000000000000000000000008152600401620024b591906200300c565b60405180910390fd5b505050565b5f620024f17f360894a13ba1a3210667c828492db98dca3e2076cc3735a920a3ca505d382bbc5f1b62002785565b5f015f9054906101000a900473ffffffffffffffffffffffffffffffffffffffff16905090565b62002523826200278e565b8173ffffffffffffffffffffffffffffffffffffffff167fbc7cd75a20ee27fd9adebab32041f755214dbc6bffa90cc0225b39da2e5c2d3b60405160405180910390a25f8151111562002583576200257c82826200285c565b506200258e565b6200258d620028e2565b5b5050565b606081471015620025dc57306040517fcd786059000000000000000000000000000000000000000000000000000000008152600401620025d391906200300c565b60405180910390fd5b5f808573ffffffffffffffffffffffffffffffffffffffff168486604051620026069190620037ed565b5f6040518083038185875af1925050503d805f811462002642576040519150601f19603f3d011682016040523d82523d5f602084013e62002647565b606091505b5091509150620026598683836200291f565b925050509392505050565b5f33905090565b62002675620029b5565b620026ac576040517fd7e6bcf800000000000000000000000000000000000000000000000000000000815260040160405180910390fd5b565b620026b86200266b565b5f73ffffffffffffffffffffffffffffffffffffffff168173ffffffffffffffffffffffffffffffffffffffff16036200272b575f6040517f1e4fbdf70000000000000000000000000000000000000000000000000000000081526004016200272291906200300c565b60405180910390fd5b6200273681620022c9565b50565b620027436200266b565b805f806101000a81548173ffffffffffffffffffffffffffffffffffffffff021916908373ffffffffffffffffffffffffffffffffffffffff16021790555050565b5f819050919050565b5f8173ffffffffffffffffffffffffffffffffffffffff163b03620027ec57806040517f4c9c8ce3000000000000000000000000000000000000000000000000000000008152600401620027e391906200300c565b60405180910390fd5b806200281a7f360894a13ba1a3210667c828492db98dca3e2076cc3735a920a3ca505d382bbc5f1b62002785565b5f015f6101000a81548173ffffffffffffffffffffffffffffffffffffffff021916908373ffffffffffffffffffffffffffffffffffffffff16021790555050565b60605f808473ffffffffffffffffffffffffffffffffffffffff1684604051620028879190620037ed565b5f60405180830381855af49150503d805f8114620028c1576040519150601f19603f3d011682016040523d82523d5f602084013e620028c6565b606091505b5091509150620028d88583836200291f565b9250505092915050565b5f3411156200291d576040517fb398979f00000000000000000000000000000000000000000000000000000000815260040160405180910390fd5b565b60608262002938576200293282620029d5565b620029ad565b5f82511480156200295f57505f8473ffffffffffffffffffffffffffffffffffffffff163b145b15620029a457836040517f9996b3150000000000000000000000000000000000000000000000000000000081526004016200299b91906200300c565b60405180910390fd5b819050620029ae565b5b9392505050565b5f620029c0620023c3565b5f0160089054906101000a900460ff16905090565b5f81511115620029e85780518082602001fd5b6040517f1425ea4200000000000000000000000000000000000000000000000000000000815260040160405180910390fd5b612088806200380683390190565b5f604051905090565b5f80fd5b5f80fd5b5f73ffffffffffffffffffffffffffffffffffffffff82169050919050565b5f62002a648262002a39565b9050919050565b5f62002a778262002a58565b9050919050565b62002a898162002a6b565b811462002a94575f80fd5b50565b5f8135905062002aa78162002a7e565b92915050565b5f819050919050565b62002ac18162002aad565b811462002acc575f80fd5b50565b5f8135905062002adf8162002ab6565b92915050565b5f806040838503121562002afe5762002afd62002a31565b5b5f62002b0d8582860162002a97565b925050602062002b208582860162002acf565b9150509250929050565b62002b358162002aad565b82525050565b5f60208201905062002b505f83018462002b2a565b92915050565b5f6020828403121562002b6e5762002b6d62002a31565b5b5f62002b7d8482850162002a97565b91505092915050565b5f8115159050919050565b62002b9c8162002b86565b82525050565b5f60208201905062002bb75f83018462002b91565b92915050565b62002bc88162002a58565b811462002bd3575f80fd5b50565b5f8135905062002be68162002bbd565b92915050565b5f6020828403121562002c045762002c0362002a31565b5b5f62002c138482850162002bd6565b91505092915050565b5f819050919050565b5f62002c4562002c3f62002c398462002a39565b62002c1c565b62002a39565b9050919050565b5f62002c588262002c25565b9050919050565b5f62002c6b8262002c4c565b9050919050565b62002c7d8162002c5f565b82525050565b5f60208201905062002c985f83018462002c72565b92915050565b5f80fd5b5f80fd5b5f601f19601f8301169050919050565b7f4e487b71000000000000000000000000000000000000000000000000000000005f52604160045260245ffd5b62002cee8262002ca6565b810181811067ffffffffffffffff8211171562002d105762002d0f62002cb6565b5b80604052505050565b5f62002d2462002a28565b905062002d32828262002ce3565b919050565b5f67ffffffffffffffff82111562002d545762002d5362002cb6565b5b62002d5f8262002ca6565b9050602081019050919050565b828183375f83830152505050565b5f62002d9062002d8a8462002d37565b62002d19565b90508281526020810184848401111562002daf5762002dae62002ca2565b5b62002dbc84828562002d6c565b509392505050565b5f82601f83011262002ddb5762002dda62002c9e565b5b813562002ded84826020860162002d7a565b91505092915050565b5f806040838503121562002e0f5762002e0e62002a31565b5b5f62002e1e8582860162002bd6565b925050602083013567ffffffffffffffff81111562002e425762002e4162002a35565b5b62002e508582860162002dc4565b9150509250929050565b5f819050919050565b62002e6e8162002e5a565b82525050565b5f60208201905062002e895f83018462002e63565b92915050565b5f80fd5b5f80fd5b5f8083601f84011262002eaf5762002eae62002c9e565b5b8235905067ffffffffffffffff81111562002ecf5762002ece62002e8f565b5b60208301915083600182028301111562002eee5762002eed62002e93565b5b9250929050565b5f805f805f6080868803121562002f115762002f1062002a31565b5b5f62002f208882890162002bd6565b955050602062002f338882890162002a97565b945050604062002f468882890162002acf565b935050606086013567ffffffffffffffff81111562002f6a5762002f6962002a35565b5b62002f788882890162002e97565b92509250509295509295909350565b62002f928162002b86565b811462002f9d575f80fd5b50565b5f8135905062002fb08162002f87565b92915050565b5f806040838503121562002fcf5762002fce62002a31565b5b5f62002fde8582860162002a97565b925050602062002ff18582860162002fa0565b9150509250929050565b620030068162002a58565b82525050565b5f602082019050620030215f83018462002ffb565b92915050565b5f81519050919050565b5f82825260208201905092915050565b5f5b838110156200306057808201518184015260208101905062003043565b5f8484015250505050565b5f620030778262003027565b62003083818562003031565b93506200309581856020860162003041565b620030a08162002ca6565b840191505092915050565b5f6020820190508181035f830152620030c581846200306b565b905092915050565b5f60208284031215620030e557620030e462002a31565b5b5f620030f48482850162002acf565b91505092915050565b5f620031098262002c4c565b9050919050565b6200311b81620030fd565b82525050565b5f602082019050620031365f83018462003110565b92915050565b5f815190506200314c8162002ab6565b92915050565b5f602082840312156200316a576200316962002a31565b5b5f62003179848285016200313c565b91505092915050565b7f4e487b71000000000000000000000000000000000000000000000000000000005f52601160045260245ffd5b5f620031bb8262002aad565b9150620031c88362002aad565b9250828202620031d88162002aad565b91508282048414831517620031f257620031f162003182565b5b5092915050565b7f4e487b71000000000000000000000000000000000000000000000000000000005f52601260045260245ffd5b5f620032328262002aad565b91506200323f8362002aad565b925082620032525762003251620031f9565b5b828204905092915050565b5f604082019050620032725f83018562002b2a565b62003281602083018462002b2a565b9392505050565b5f6040820190506200329d5f83018562002ffb565b620032ac602083018462002b2a565b9392505050565b5f82825260208201905092915050565b5f620032d08385620032b3565b9350620032df83858462002d6c565b620032ea8362002ca6565b840190509392505050565b5f6060820190506200330a5f83018762002b2a565b62003319602083018662002b2a565b81810360408301526200332e818486620032c3565b905095945050505050565b5f60a0820190506200334e5f83018962002ffb565b6200335d602083018862002b2a565b6200336c604083018762002b2a565b6200337b606083018662002ffb565b818103608083015262003390818486620032c3565b9050979650505050505050565b5f620033a98262002aad565b9150620033b68362002aad565b9250828201905080821115620033d157620033d062003182565b5b92915050565b5f81519050620033e78162002bbd565b92915050565b5f6020828403121562003405576200340462002a31565b5b5f6200341484828501620033d7565b91505092915050565b5f67ffffffffffffffff8211156200343a576200343962002cb6565b5b620034458262002ca6565b9050602081019050919050565b5f6200346862003462846200341d565b62002d19565b90508281526020810184848401111562003487576200348662002ca2565b5b6200349484828562003041565b509392505050565b5f82601f830112620034b357620034b262002c9e565b5b8151620034c584826020860162003452565b91505092915050565b5f60208284031215620034e657620034e562002a31565b5b5f82015167ffffffffffffffff81111562003506576200350562002a35565b5b62003514848285016200349c565b91505092915050565b7f5468756e6465724c6f616e200000000000000000000000000000000000000000815250565b5f81905092915050565b5f620035598262003027565b62003565818562003543565b93506200357781856020860162003041565b80840191505092915050565b5f6200358f826200351d565b600c82019150620035a182846200354d565b915081905092915050565b7f746c000000000000000000000000000000000000000000000000000000000000815250565b5f620035de82620035ac565b600282019150620035f082846200354d565b915081905092915050565b5f608082019050620036105f83018762002ffb565b6200361f602083018662003110565b81810360408301526200363381856200306b565b905081810360608301526200364981846200306b565b905095945050505050565b5f819050919050565b5f67ffffffffffffffff82169050919050565b5f620036906200368a620036848462003654565b62002c1c565b6200365d565b9050919050565b620036a28162003670565b82525050565b5f602082019050620036bd5f83018462003697565b92915050565b5f606082019050620036d85f83018662002ffb565b620036e7602083018562002ffb565b620036f6604083018462002b2a565b949350505050565b620037098162002e5a565b811462003714575f80fd5b50565b5f815190506200372781620036fe565b92915050565b5f6020828403121562003745576200374462002a31565b5b5f620037548482850162003717565b91505092915050565b5f815190506200376d8162002f87565b92915050565b5f602082840312156200378b576200378a62002a31565b5b5f6200379a848285016200375d565b91505092915050565b5f81519050919050565b5f81905092915050565b5f620037c382620037a3565b620037cf8185620037ad565b9350620037e181856020860162003041565b80840191505092915050565b5f620037fa8284620037b7565b91508190509291505056fe60c060405234801562000010575f80fd5b5060405162002088380380620020888339818101604052810190620000369190620003d7565b81818160039081620000499190620006bb565b5080600490816200005b9190620006bb565b505050835f73ffffffffffffffffffffffffffffffffffffffff168173ffffffffffffffffffffffffffffffffffffffff1603620000c5576040517f9f1301a500000000000000000000000000000000000000000000000000000000815260040160405180910390fd5b835f73ffffffffffffffffffffffffffffffffffffffff168173ffffffffffffffffffffffffffffffffffffffff16036200012c576040517f9f1301a500000000000000000000000000000000000000000000000000000000815260040160405180910390fd5b8573ffffffffffffffffffffffffffffffffffffffff1660a08173ffffffffffffffffffffffffffffffffffffffff16815250508473ffffffffffffffffffffffffffffffffffffffff1660808173ffffffffffffffffffffffffffffffffffffffff1681525050670de0b6b3a76400006005819055505050505050506200079f565b5f604051905090565b5f80fd5b5f80fd5b5f73ffffffffffffffffffffffffffffffffffffffff82169050919050565b5f620001eb82620001c0565b9050919050565b620001fd81620001df565b811462000208575f80fd5b50565b5f815190506200021b81620001f2565b92915050565b5f6200022d82620001df565b9050919050565b6200023f8162000221565b81146200024a575f80fd5b50565b5f815190506200025d8162000234565b92915050565b5f80fd5b5f80fd5b5f601f19601f8301169050919050565b7f4e487b71000000000000000000000000000000000000000000000000000000005f52604160045260245ffd5b620002b3826200026b565b810181811067ffffffffffffffff82111715620002d557620002d46200027b565b5b80604052505050565b5f620002e9620001af565b9050620002f78282620002a8565b919050565b5f67ffffffffffffffff8211156200031957620003186200027b565b5b62000324826200026b565b9050602081019050919050565b5f5b838110156200035057808201518184015260208101905062000333565b5f8484015250505050565b5f620003716200036b84620002fc565b620002de565b90508281526020810184848401111562000390576200038f62000267565b5b6200039d84828562000331565b509392505050565b5f82601f830112620003bc57620003bb62000263565b5b8151620003ce8482602086016200035b565b91505092915050565b5f805f8060808587031215620003f257620003f1620001b8565b5b5f62000401878288016200020b565b945050602062000414878288016200024d565b935050604085015167ffffffffffffffff811115620004385762000437620001bc565b5b6200044687828801620003a5565b925050606085015167ffffffffffffffff8111156200046a5762000469620001bc565b5b6200047887828801620003a5565b91505092959194509250565b5f81519050919050565b7f4e487b71000000000000000000000000000000000000000000000000000000005f52602260045260245ffd5b5f6002820490506001821680620004d357607f821691505b602082108103620004e957620004e86200048e565b5b50919050565b5f819050815f5260205f209050919050565b5f6020601f8301049050919050565b5f82821b905092915050565b5f600883026200054d7fffffffffffffffffffffffffffffffffffffffffffffffffffffffffffffffff8262000510565b62000559868362000510565b95508019841693508086168417925050509392505050565b5f819050919050565b5f819050919050565b5f620005a36200059d620005978462000571565b6200057a565b62000571565b9050919050565b5f819050919050565b620005be8362000583565b620005d6620005cd82620005aa565b8484546200051c565b825550505050565b5f90565b620005ec620005de565b620005f9818484620005b3565b505050565b5b818110156200062057620006145f82620005e2565b600181019050620005ff565b5050565b601f8211156200066f576200063981620004ef565b620006448462000501565b8101602085101562000654578190505b6200066c620006638562000501565b830182620005fe565b50505b505050565b5f82821c905092915050565b5f620006915f198460080262000674565b1980831691505092915050565b5f620006ab838362000680565b9150826002028217905092915050565b620006c68262000484565b67ffffffffffffffff811115620006e257620006e16200027b565b5b620006ee8254620004bb565b620006fb82828562000624565b5f60209050601f83116001811462000731575f84156200071c578287015190505b6200072885826200069e565b86555062000797565b601f1984166200074186620004ef565b5f5b828110156200076a5784890151825560018201915060208501945060208101905062000743565b868310156200078a578489015162000786601f89168262000680565b8355505b6001600288020188555050505b505050505050565b60805160a0516118ab620007dd5f395f8181610433015281816104c601528181610696015261074b01525f8181610550015261067001526118ab5ff3fe608060405234801561000f575f80fd5b50600436106100fe575f3560e01c806370a0823111610095578063a9059cbb11610064578063a9059cbb1461029a578063b9e205ae146102ca578063dd62ed3e146102e6578063e6aa216c14610316576100fe565b806370a082311461021257806395d89b41146102425780639816f473146102605780639dc29fac1461027e576100fe565b8063313ce567116100d1578063313ce5671461019e5780633a01b964146101bc57806340c10f19146101da5780634efecaa5146101f6576100fe565b806306fdde0314610102578063095ea7b31461012057806318160ddd1461015057806323b872dd1461016e575b5f80fd5b61010a610334565b60405161011791906112ea565b60405180910390f35b61013a6004803603810190610135919061139b565b6103c4565b60405161014791906113f3565b60405180910390f35b6101586103e6565b604051610165919061141b565b60405180910390f35b61018860048036038101906101839190611434565b6103ef565b60405161019591906113f3565b60405180910390f35b6101a661041d565b6040516101b3919061149f565b60405180910390f35b6101c4610425565b6040516101d1919061141b565b60405180910390f35b6101f460048036038101906101ef919061139b565b610431565b005b610210600480360381019061020b919061139b565b6104c4565b005b61022c600480360381019061022791906114b8565b610598565b604051610239919061141b565b60405180910390f35b61024a6105dd565b60405161025791906112ea565b60405180910390f35b61026861066d565b604051610275919061153e565b60405180910390f35b6102986004803603810190610293919061139b565b610694565b005b6102b460048036038101906102af919061139b565b610727565b6040516102c191906113f3565b60405180910390f35b6102e460048036038101906102df9190611557565b610749565b005b61030060048036038101906102fb9190611582565b610891565b60405161030d919061141b565b60405180910390f35b61031e610913565b60405161032b919061141b565b60405180910390f35b606060038054610343906115ed565b80601f016020809104026020016040519081016040528092919081815260200182805461036f906115ed565b80156103ba5780601f10610391576101008083540402835291602001916103ba565b820191905f5260205f20905b81548152906001019060200180831161039d57829003601f168201915b5050505050905090565b5f806103ce61091c565b90506103db818585610923565b600191505092915050565b5f600254905090565b5f806103f961091c565b9050610406858285610935565b6104118585856109c7565b60019150509392505050565b5f6012905090565b670de0b6b3a764000081565b7f000000000000000000000000000000000000000000000000000000000000000073ffffffffffffffffffffffffffffffffffffffff163373ffffffffffffffffffffffffffffffffffffffff16146104b6576040517f52286ec400000000000000000000000000000000000000000000000000000000815260040160405180910390fd5b6104c08282610ab7565b5050565b7f000000000000000000000000000000000000000000000000000000000000000073ffffffffffffffffffffffffffffffffffffffff163373ffffffffffffffffffffffffffffffffffffffff1614610549576040517f52286ec400000000000000000000000000000000000000000000000000000000815260040160405180910390fd5b61059482827f000000000000000000000000000000000000000000000000000000000000000073ffffffffffffffffffffffffffffffffffffffff16610b369092919063ffffffff16565b5050565b5f805f8373ffffffffffffffffffffffffffffffffffffffff1673ffffffffffffffffffffffffffffffffffffffff1681526020019081526020015f20549050919050565b6060600480546105ec906115ed565b80601f0160208091040260200160405190810160405280929190818152602001828054610618906115ed565b80156106635780601f1061063a57610100808354040283529160200191610663565b820191905f5260205f20905b81548152906001019060200180831161064657829003601f168201915b5050505050905090565b5f7f0000000000000000000000000000000000000000000000000000000000000000905090565b7f000000000000000000000000000000000000000000000000000000000000000073ffffffffffffffffffffffffffffffffffffffff163373ffffffffffffffffffffffffffffffffffffffff1614610719576040517f52286ec400000000000000000000000000000000000000000000000000000000815260040160405180910390fd5b6107238282610bb5565b5050565b5f8061073161091c565b905061073e8185856109c7565b600191505092915050565b7f000000000000000000000000000000000000000000000000000000000000000073ffffffffffffffffffffffffffffffffffffffff163373ffffffffffffffffffffffffffffffffffffffff16146107ce576040517f52286ec400000000000000000000000000000000000000000000000000000000815260040160405180910390fd5b5f6107d76103e6565b826107e06103e6565b6107ea919061164a565b6005546107f7919061167d565b61080191906116eb565b9050600554811161084d57600554816040517f2c16897c00000000000000000000000000000000000000000000000000000000815260040161084492919061171b565b60405180910390fd5b806005819055507f388f446e9526fe5c9af20a5919b342370c8a7c0cb05245afe1e545658fa3cdba600554604051610885919061141b565b60405180910390a15050565b5f60015f8473ffffffffffffffffffffffffffffffffffffffff1673ffffffffffffffffffffffffffffffffffffffff1681526020019081526020015f205f8373ffffffffffffffffffffffffffffffffffffffff1673ffffffffffffffffffffffffffffffffffffffff1681526020019081526020015f2054905092915050565b5f600554905090565b5f33905090565b6109308383836001610c34565b505050565b5f6109408484610891565b90507fffffffffffffffffffffffffffffffffffffffffffffffffffffffffffffffff81146109c157818110156109b2578281836040517ffb8f41b20000000000000000000000000000000000000000000000000000000081526004016109a993929190611751565b60405180910390fd5b6109c084848484035f610c34565b5b50505050565b5f73ffffffffffffffffffffffffffffffffffffffff168373ffffffffffffffffffffffffffffffffffffffff1603610a37575f6040517f96c6fd1e000000000000000000000000000000000000000000000000000000008152600401610a2e9190611786565b60405180910390fd5b5f73ffffffffffffffffffffffffffffffffffffffff168273ffffffffffffffffffffffffffffffffffffffff1603610aa7575f6040517fec442f05000000000000000000000000000000000000000000000000000000008152600401610a9e9190611786565b60405180910390fd5b610ab2838383610e03565b505050565b5f73ffffffffffffffffffffffffffffffffffffffff168273ffffffffffffffffffffffffffffffffffffffff1603610b27575f6040517fec442f05000000000000000000000000000000000000000000000000000000008152600401610b1e9190611786565b60405180910390fd5b610b325f8383610e03565b5050565b610bb0838473ffffffffffffffffffffffffffffffffffffffff1663a9059cbb8585604051602401610b6992919061179f565b604051602081830303815290604052915060e01b6020820180517bffffffffffffffffffffffffffffffffffffffffffffffffffffffff838183161783525050505061101c565b505050565b5f73ffffffffffffffffffffffffffffffffffffffff168273ffffffffffffffffffffffffffffffffffffffff1603610c25575f6040517f96c6fd1e000000000000000000000000000000000000000000000000000000008152600401610c1c9190611786565b60405180910390fd5b610c30825f83610e03565b5050565b5f73ffffffffffffffffffffffffffffffffffffffff168473ffffffffffffffffffffffffffffffffffffffff1603610ca4575f6040517fe602df05000000000000000000000000000000000000000000000000000000008152600401610c9b9190611786565b60405180910390fd5b5f73ffffffffffffffffffffffffffffffffffffffff168373ffffffffffffffffffffffffffffffffffffffff1603610d14575f6040517f94280d62000000000000000000000000000000000000000000000000000000008152600401610d0b9190611786565b60405180910390fd5b8160015f8673ffffffffffffffffffffffffffffffffffffffff1673ffffffffffffffffffffffffffffffffffffffff1681526020019081526020015f205f8573ffffffffffffffffffffffffffffffffffffffff1673ffffffffffffffffffffffffffffffffffffffff1681526020019081526020015f20819055508015610dfd578273ffffffffffffffffffffffffffffffffffffffff168473ffffffffffffffffffffffffffffffffffffffff167f8c5be1e5ebec7d5bd14f71427d1e84f3dd0314c0f7b2291e5b200ac8c7c3b92584604051610df4919061141b565b60405180910390a35b50505050565b5f73ffffffffffffffffffffffffffffffffffffffff168373ffffffffffffffffffffffffffffffffffffffff1603610e53578060025f828254610e47919061164a565b92505081905550610f21565b5f805f8573ffffffffffffffffffffffffffffffffffffffff1673ffffffffffffffffffffffffffffffffffffffff1681526020019081526020015f2054905081811015610edc578381836040517fe450d38c000000000000000000000000000000000000000000000000000000008152600401610ed393929190611751565b60405180910390fd5b8181035f808673ffffffffffffffffffffffffffffffffffffffff1673ffffffffffffffffffffffffffffffffffffffff1681526020019081526020015f2081905550505b5f73ffffffffffffffffffffffffffffffffffffffff168273ffffffffffffffffffffffffffffffffffffffff1603610f68578060025f8282540392505081905550610fb2565b805f808473ffffffffffffffffffffffffffffffffffffffff1673ffffffffffffffffffffffffffffffffffffffff1681526020019081526020015f205f82825401925050819055505b8173ffffffffffffffffffffffffffffffffffffffff168373ffffffffffffffffffffffffffffffffffffffff167fddf252ad1be2c89b69c2b068fc378daa952ba7f163c4a11628f55a4df523b3ef8360405161100f919061141b565b60405180910390a3505050565b5f611046828473ffffffffffffffffffffffffffffffffffffffff166110b190919063ffffffff16565b90505f81511415801561106a57508080602001905181019061106891906117f0565b155b156110ac57826040517f5274afe70000000000000000000000000000000000000000000000000000000081526004016110a39190611786565b60405180910390fd5b505050565b60606110be83835f6110c6565b905092915050565b60608147101561110d57306040517fcd7860590000000000000000000000000000000000000000000000000000000081526004016111049190611786565b60405180910390fd5b5f808573ffffffffffffffffffffffffffffffffffffffff168486604051611135919061185f565b5f6040518083038185875af1925050503d805f811461116f576040519150601f19603f3d011682016040523d82523d5f602084013e611174565b606091505b509150915061118486838361118f565b925050509392505050565b6060826111a45761119f8261121c565b611214565b5f82511480156111ca57505f8473ffffffffffffffffffffffffffffffffffffffff163b145b1561120c57836040517f9996b3150000000000000000000000000000000000000000000000000000000081526004016112039190611786565b60405180910390fd5b819050611215565b5b9392505050565b5f8151111561122e5780518082602001fd5b6040517f1425ea4200000000000000000000000000000000000000000000000000000000815260040160405180910390fd5b5f81519050919050565b5f82825260208201905092915050565b5f5b8381101561129757808201518184015260208101905061127c565b5f8484015250505050565b5f601f19601f8301169050919050565b5f6112bc82611260565b6112c6818561126a565b93506112d681856020860161127a565b6112df816112a2565b840191505092915050565b5f6020820190508181035f83015261130281846112b2565b905092915050565b5f80fd5b5f73ffffffffffffffffffffffffffffffffffffffff82169050919050565b5f6113378261130e565b9050919050565b6113478161132d565b8114611351575f80fd5b50565b5f813590506113628161133e565b92915050565b5f819050919050565b61137a81611368565b8114611384575f80fd5b50565b5f8135905061139581611371565b92915050565b5f80604083850312156113b1576113b061130a565b5b5f6113be85828601611354565b92505060206113cf85828601611387565b9150509250929050565b5f8115159050919050565b6113ed816113d9565b82525050565b5f6020820190506114065f8301846113e4565b92915050565b61141581611368565b82525050565b5f60208201905061142e5f83018461140c565b92915050565b5f805f6060848603121561144b5761144a61130a565b5b5f61145886828701611354565b935050602061146986828701611354565b925050604061147a86828701611387565b9150509250925092565b5f60ff82169050919050565b61149981611484565b82525050565b5f6020820190506114b25f830184611490565b92915050565b5f602082840312156114cd576114cc61130a565b5b5f6114da84828501611354565b91505092915050565b5f819050919050565b5f6115066115016114fc8461130e565b6114e3565b61130e565b9050919050565b5f611517826114ec565b9050919050565b5f6115288261150d565b9050919050565b6115388161151e565b82525050565b5f6020820190506115515f83018461152f565b92915050565b5f6020828403121561156c5761156b61130a565b5b5f61157984828501611387565b91505092915050565b5f80604083850312156115985761159761130a565b5b5f6115a585828601611354565b92505060206115b685828601611354565b9150509250929050565b7f4e487b71000000000000000000000000000000000000000000000000000000005f52602260045260245ffd5b5f600282049050600182168061160457607f821691505b602082108103611617576116166115c0565b5b50919050565b7f4e487b71000000000000000000000000000000000000000000000000000000005f52601160045260245ffd5b5f61165482611368565b915061165f83611368565b92508282019050808211156116775761167661161d565b5b92915050565b5f61168782611368565b915061169283611368565b92508282026116a081611368565b915082820484148315176116b7576116b661161d565b5b5092915050565b7f4e487b71000000000000000000000000000000000000000000000000000000005f52601260045260245ffd5b5f6116f582611368565b915061170083611368565b9250826117105761170f6116be565b5b828204905092915050565b5f60408201905061172e5f83018561140c565b61173b602083018461140c565b9392505050565b61174b8161132d565b82525050565b5f6060820190506117645f830186611742565b611771602083018561140c565b61177e604083018461140c565b949350505050565b5f6020820190506117995f830184611742565b92915050565b5f6040820190506117b25f830185611742565b6117bf602083018461140c565b9392505050565b6117cf816113d9565b81146117d9575f80fd5b50565b5f815190506117ea816117c6565b92915050565b5f602082840312156118055761180461130a565b5b5f611812848285016117dc565b91505092915050565b5f81519050919050565b5f81905092915050565b5f6118398261181b565b6118438185611825565b935061185381856020860161127a565b80840191505092915050565b5f61186a828461182f565b91508190509291505056fea2646970667358221220993ad47e87a82481c8859e3442f91ed207ddfee7abc14b020422131d2dffdd0364736f6c63430008140033a26469706673582212202048bf738fee8c2b87a21acc85172aad84cee191e1b8483e547f3eb406ba59be64736f6c63430008140033","linkReferences":{}},"methodIdentifiers":{"UPGRADE_INTERFACE_VERSION()":"ad3cb1cc","deposit(address,uint256)":"47e7ef24","flashloan(address,address,uint256,bytes)":"63ad2c41","getAssetFromToken(address)":"46638b10","getCalculatedFee(address,uint256)":"2d85a7db","getFee()":"ced72f87","getFeePrecision()":"2537d324","getPoolFactoryAddress()":"8f3443cb","getPrice(address)":"41976e09","getPriceInWeth(address)":"70a1ed89","initialize(address)":"c4d66de8","isAllowedToken(address)":"cbe230c3","isCurrentlyFlashLoaning(address)":"396ecd78","owner()":"8da5cb5b","proxiableUUID()":"52d1902d","redeem(address,uint256)":"1e9a6950","renounceOwnership()":"715018a6","repay(address,uint256)":"22867d78","s_tokenToAssetToken(address)":"67ebd738","setAllowedToken(address,bool)":"8aaa2284","transferOwnership(address)":"f2fde38b","updateFlashLoanFee(uint256)":"d8566874","upgradeToAndCall(address,bytes)":"4f1ef286"}}}}}