{"src/protocol/AssetToken.sol":{"AssetToken":{"abi":[{"type":"constructor","inputs":[{"name":"thunderLoan","type":"address","internalType":"address"},{"name":"underlying","type":"address","internalType":"contract IERC20"},{"name":"assetName","type":"string","internalType":"string"},{"name":"assetSymbol","type":"string","internalType":"string"}],"stateMutability":"nonpayable"},{"type":"function","name":"EXCHANGE_RATE_PRECISION","inputs":[],"outputs":[{"name":"","type":"uint256","internalType":"uint256"}],"stateMutability":"view"},{"type":"function","name":"allowance","inputs":[{"name":"owner","type":"address","internalType":"address"},{"name":"spender","type":"address","internalType":"address"}],"outputs":[{"name":"","type":"uint256","internalType":"uint256"}],"stateMutability":"view"},{"type":"function","name":"approve","inputs":[{"name":"spender","type":"address","internalType":"address"},{"name":"value","type":"uint256","internalType":"uint256"}],"outputs":[{"name":"","type":"bool","internalType":"bool"}],"stateMutability":"nonpayable"},{"type":"function","name":"balanceOf","inputs":[{"name":"account","type":"address","internalType":"address"}],"outputs":[{"name":"","type":"uint256","internalType":"uint256"}],"stateMutability":"view"},{"type":"function","name":"burn","inputs":[{"name":"account","type":"address","internalType":"address"},{"name":"amount","type":"uint256","internalType":"uint256"}],"outputs":[],"stateMutability":"nonpayable"},{"type":"function","name":"decimals","inputs":[],"outputs":[{"name":"","type":"uint8","internalType":"uint8"}],"stateMutability":"view"},{"type":"function","name":"getExchangeRate","inputs":[],"outputs":[{"name":"","type":"uint256","internalType":"uint256"}],"stateMutability":"view"},{"type":"function","name":"getUnderlying","inputs":[],"outputs":[{"name":"","type":"address","internalType":"contract IERC20"}],"stateMutability":"view"},{"type":"function","name":"mint","inputs":[{"name":"to","type":"address","internalType":"address"},{"name":"amount","type":"uint256","internalType":"uint256"}],"outputs":[],"stateMutability":"nonpayable"},{"type":"function","name":"name","inputs":[],"outputs":[{"name":"","type":"string","internalType":"string"}],"stateMutability":"view"},{"type":"function","name":"symbol","inputs":[],"outputs":[{"name":"","type":"string","internalType":"string"}],"stateMutability":"view"},{"type":"function","name":"totalSupply","inputs":[],"outputs":[{"name":"","type":"uint256","internalType":"uint256"}],"stateMutability":"view"},{"type":"function","name":"transfer","inputs":[{"name":"to","type":"address","internalType":"address"},{"name":"value","type":"uint256","internalType":"uint256"}],"outputs":[{"name":"","type":"bool","internalType":"bool"}],"stateMutability":"nonpayable"},{"type":"function","name":"transferFrom","inputs":[{"name":"from","type":"address","internalType":"address"},{"name":"to","type":"address","internalType":"address"},{"name":"value","type":"uint256","internalType":"uint256"}],"outputs":[{"name":"","type":"bool","internalType":"bool"}],"stateMutability":"nonpayable"},{"type":"function","name":"transferUnderlyingTo","inputs":[{"name":"to","type":"address","internalType":"address"},{"name":"amount","type":"uint256","internalType":"uint256"}],"outputs":[],"stateMutability":"nonpayable"},{"type":"function","name":"updateExchangeRate","inputs":[{"name":"fee","type":"uint256","internalType":"uint256"}],"outputs":[],"stateMutability":"nonpayable"},{"type":"event","name":"Approval","inputs":[{"name":"owner","type":"address","indexed":true,"internalType":"address"},{"name":"spender","type":"address","indexed":true,"internalType":"address"},{"name":"value","type":"uint256","indexed":false,"internalType":"uint256"}],"anonymous":false},{"type":"event","name":"ExchangeRateUpdated","inputs":[{"name":"newExchangeRate","type":"uint256","indexed":false,"internalType":"uint256"}],"anonymous":false},{"type":"event","name":"Transfer","inputs":[{"name":"from","type":"address","indexed":true,"internalType":"address"},{"name":"to","type":"address","indexed":true,"internalType":"address"},{"name":"value","type":"uint256","indexed":false,"internalType":"uint256"}],"anonymous":false},{"type":"error","name":"AddressEmptyCode","inputs":[{"name":"target","type":"address","internalType":"address"}]},{"type":"error","name":"AddressInsufficientBalance","inputs":[{"name":"account","type":"address","internalType":"address"}]},{"type":"error","name":"AssetToken__ExhangeRateCanOnlyIncrease","inputs":[{"name":"oldExchangeRate","type":"uint256","internalType":"uint256"},{"name":"newExchangeRate","type":"uint256","internalType":"uint256"}]},{"type":"error","name":"AssetToken__ZeroAddress","inputs":[]},{"type":"error","name":"AssetToken__onlyThunderLoan","inputs":[]},{"type":"error","name":"ERC20InsufficientAllowance","inputs":[{"name":"spender","type":"address","internalType":"address"},{"name":"allowance","type":"uint256","internalType":"uint256"},{"name":"needed","type":"uint256","internalType":"uint256"}]},{"type":"error","name":"ERC20InsufficientBalance","inputs":[{"name":"sender","type":"address","internalType":"address"},{"name":"balance","type":"uint256","internalType":"uint256"},{"name":"needed","type":"uint256","internalType":"uint256"}]},{"type":"error","name":"ERC20InvalidApprover","inputs":[{"name":"approver","type":"address","internalType":"address"}]},{"type":"error","name":"ERC20InvalidReceiver","inputs":[{"name":"receiver","type":"address","internalType":"address"}]},{"type":"error","name":"ERC20InvalidSender","inputs":[{"name":"sender","type":"address","internalType":"address"}]},{"type":"error","name":"ERC20InvalidSpender","inputs":[{"name":"spender","type":"address","internalType":"address"}]},{"type":"error","name":"FailedInnerCall","inputs":[]},{"type":"error","name":"SafeERC20FailedOperation","inputs":[{"name":"token","type":"address","internalType":"address"}]}],"userdoc":{},"devdoc":{},"evm":{"bytecode":{"object":"60c060405234801562000010575f80fd5b5060405162002088380380620020888339818101604052810190620000369190620003d7565b81818160039081620000499190620006bb565b5080600490816200005b9190620006bb565b505050835f73ffffffffffffffffffffffffffffffffffffffff168173ffffffffffffffffffffffffffffffffffffffff1603620000c5576040517f9f1301a500000000000000000000000000000000000000000000000000000000815260040160405180910390fd5b835f73ffffffffffffffffffffffffffffffffffffffff168173ffffffffffffffffffffffffffffffffffffffff16036200012c576040517f9f1301a500000000000000000000000000000000000000000000000000000000815260040160405180910390fd5b8573ffffffffffffffffffffffffffffffffffffffff1660a08173ffffffffffffffffffffffffffffffffffffffff16815250508473ffffffffffffffffffffffffffffffffffffffff1660808173ffffffffffffffffffffffffffffffffffffffff1681525050670de0b6b3a76400006005819055505050505050506200079f565b5f604051905090565b5f80fd5b5f80fd5b5f73ffffffffffffffffffffffffffffffffffffffff82169050919050565b5f620001eb82620001c0565b9050919050565b620001fd81620001df565b811462000208575f80fd5b50565b5f815190506200021b81620001f2565b92915050565b5f6200022d82620001df565b9050919050565b6200023f8162000221565b81146200024a575f80fd5b50565b5f815190506200025d8162000234565b92915050565b5f80fd5b5f80fd5b5f601f19601f8301169050919050565b7f4e487b71000000000000000000000000000000000000000000000000000000005f52604160045260245ffd5b620002b3826200026b565b810181811067ffffffffffffffff82111715620002d557620002d46200027b565b5b80604052505050565b5f620002e9620001af565b9050620002f78282620002a8565b919050565b5f67ffffffffffffffff8211156200031957620003186200027b565b5b62000324826200026b565b9050602081019050919050565b5f5b838110156200035057808201518184015260208101905062000333565b5f8484015250505050565b5f620003716200036b84620002fc565b620002de565b90508281526020810184848401111562000390576200038f62000267565b5b6200039d84828562000331565b509392505050565b5f82601f830112620003bc57620003bb62000263565b5b8151620003ce8482602086016200035b565b91505092915050565b5f805f8060808587031215620003f257620003f1620001b8565b5b5f62000401878288016200020b565b945050602062000414878288016200024d565b935050604085015167ffffffffffffffff811115620004385762000437620001bc565b5b6200044687828801620003a5565b925050606085015167ffffffffffffffff8111156200046a5762000469620001bc565b5b6200047887828801620003a5565b91505092959194509250565b5f81519050919050565b7f4e487b71000000000000000000000000000000000000000000000000000000005f52602260045260245ffd5b5f6002820490506001821680620004d357607f821691505b602082108103620004e957620004e86200048e565b5b50919050565b5f819050815f5260205f209050919050565b5f6020601f8301049050919050565b5f82821b905092915050565b5f600883026200054d7fffffffffffffffffffffffffffffffffffffffffffffffffffffffffffffffff8262000510565b62000559868362000510565b95508019841693508086168417925050509392505050565b5f819050919050565b5f819050919050565b5f620005a36200059d620005978462000571565b6200057a565b62000571565b9050919050565b5f819050919050565b620005be8362000583565b620005d6620005cd82620005aa565b8484546200051c565b825550505050565b5f90565b620005ec620005de565b620005f9818484620005b3565b505050565b5b818110156200062057620006145f82620005e2565b600181019050620005ff565b5050565b601f8211156200066f576200063981620004ef565b620006448462000501565b8101602085101562000654578190505b6200066c620006638562000501565b830182620005fe565b50505b505050565b5f82821c905092915050565b5f620006915f198460080262000674565b1980831691505092915050565b5f620006ab838362000680565b9150826002028217905092915050565b620006c68262000484565b67ffffffffffffffff811115620006e257620006e16200027b565b5b620006ee8254620004bb565b620006fb82828562000624565b5f60209050601f83116001811462000731575f84156200071c578287015190505b6200072885826200069e565b86555062000797565b601f1984166200074186620004ef565b5f5b828110156200076a5784890151825560018201915060208501945060208101905062000743565b868310156200078a578489015162000786601f89168262000680565b8355505b6001600288020188555050505b505050505050565b60805160a0516118ab620007dd5f395f8181610433015281816104c601528181610696015261074b01525f8181610550015261067001526118ab5ff3fe608060405234801561000f575f80fd5b50600436106100fe575f3560e01c806370a0823111610095578063a9059cbb11610064578063a9059cbb1461029a578063b9e205ae146102ca578063dd62ed3e146102e6578063e6aa216c14610316576100fe565b806370a082311461021257806395d89b41146102425780639816f473146102605780639dc29fac1461027e576100fe565b8063313ce567116100d1578063313ce5671461019e5780633a01b964146101bc57806340c10f19146101da5780634efecaa5146101f6576100fe565b806306fdde0314610102578063095ea7b31461012057806318160ddd1461015057806323b872dd1461016e575b5f80fd5b61010a610334565b60405161011791906112ea565b60405180910390f35b61013a6004803603810190610135919061139b565b6103c4565b60405161014791906113f3565b60405180910390f35b6101586103e6565b604051610165919061141b565b60405180910390f35b61018860048036038101906101839190611434565b6103ef565b60405161019591906113f3565b60405180910390f35b6101a661041d565b6040516101b3919061149f565b60405180910390f35b6101c4610425565b6040516101d1919061141b565b60405180910390f35b6101f460048036038101906101ef919061139b565b610431565b005b610210600480360381019061020b919061139b565b6104c4565b005b61022c600480360381019061022791906114b8565b610598565b604051610239919061141b565b60405180910390f35b61024a6105dd565b60405161025791906112ea565b60405180910390f35b61026861066d565b604051610275919061153e565b60405180910390f35b6102986004803603810190610293919061139b565b610694565b005b6102b460048036038101906102af919061139b565b610727565b6040516102c191906113f3565b60405180910390f35b6102e460048036038101906102df9190611557565b610749565b005b61030060048036038101906102fb9190611582565b610891565b60405161030d919061141b565b60405180910390f35b61031e610913565b60405161032b919061141b565b60405180910390f35b606060038054610343906115ed565b80601f016020809104026020016040519081016040528092919081815260200182805461036f906115ed565b80156103ba5780601f10610391576101008083540402835291602001916103ba565b820191905f5260205f20905b81548152906001019060200180831161039d57829003601f168201915b5050505050905090565b5f806103ce61091c565b90506103db818585610923565b600191505092915050565b5f600254905090565b5f806103f961091c565b9050610406858285610935565b6104118585856109c7565b60019150509392505050565b5f6012905090565b670de0b6b3a764000081565b7f000000000000000000000000000000000000000000000000000000000000000073ffffffffffffffffffffffffffffffffffffffff163373ffffffffffffffffffffffffffffffffffffffff16146104b6576040517f52286ec400000000000000000000000000000000000000000000000000000000815260040160405180910390fd5b6104c08282610ab7565b5050565b7f000000000000000000000000000000000000000000000000000000000000000073ffffffffffffffffffffffffffffffffffffffff163373ffffffffffffffffffffffffffffffffffffffff1614610549576040517f52286ec400000000000000000000000000000000000000000000000000000000815260040160405180910390fd5b61059482827f000000000000000000000000000000000000000000000000000000000000000073ffffffffffffffffffffffffffffffffffffffff16610b369092919063ffffffff16565b5050565b5f805f8373ffffffffffffffffffffffffffffffffffffffff1673ffffffffffffffffffffffffffffffffffffffff1681526020019081526020015f20549050919050565b6060600480546105ec906115ed565b80601f0160208091040260200160405190810160405280929190818152602001828054610618906115ed565b80156106635780601f1061063a57610100808354040283529160200191610663565b820191905f5260205f20905b81548152906001019060200180831161064657829003601f168201915b5050505050905090565b5f7f0000000000000000000000000000000000000000000000000000000000000000905090565b7f000000000000000000000000000000000000000000000000000000000000000073ffffffffffffffffffffffffffffffffffffffff163373ffffffffffffffffffffffffffffffffffffffff1614610719576040517f52286ec400000000000000000000000000000000000000000000000000000000815260040160405180910390fd5b6107238282610bb5565b5050565b5f8061073161091c565b905061073e8185856109c7565b600191505092915050565b7f000000000000000000000000000000000000000000000000000000000000000073ffffffffffffffffffffffffffffffffffffffff163373ffffffffffffffffffffffffffffffffffffffff16146107ce576040517f52286ec400000000000000000000000000000000000000000000000000000000815260040160405180910390fd5b5f6107d76103e6565b826107e06103e6565b6107ea919061164a565b6005546107f7919061167d565b61080191906116eb565b9050600554811161084d57600554816040517f2c16897c00000000000000000000000000000000000000000000000000000000815260040161084492919061171b565b60405180910390fd5b806005819055507f388f446e9526fe5c9af20a5919b342370c8a7c0cb05245afe1e545658fa3cdba600554604051610885919061141b565b60405180910390a15050565b5f60015f8473ffffffffffffffffffffffffffffffffffffffff1673ffffffffffffffffffffffffffffffffffffffff1681526020019081526020015f205f8373ffffffffffffffffffffffffffffffffffffffff1673ffffffffffffffffffffffffffffffffffffffff1681526020019081526020015f2054905092915050565b5f600554905090565b5f33905090565b6109308383836001610c34565b505050565b5f6109408484610891565b90507fffffffffffffffffffffffffffffffffffffffffffffffffffffffffffffffff81146109c157818110156109b2578281836040517ffb8f41b20000000000000000000000000000000000000000000000000000000081526004016109a993929190611751565b60405180910390fd5b6109c084848484035f610c34565b5b50505050565b5f73ffffffffffffffffffffffffffffffffffffffff168373ffffffffffffffffffffffffffffffffffffffff1603610a37575f6040517f96c6fd1e000000000000000000000000000000000000000000000000000000008152600401610a2e9190611786565b60405180910390fd5b5f73ffffffffffffffffffffffffffffffffffffffff168273ffffffffffffffffffffffffffffffffffffffff1603610aa7575f6040517fec442f05000000000000000000000000000000000000000000000000000000008152600401610a9e9190611786565b60405180910390fd5b610ab2838383610e03565b505050565b5f73ffffffffffffffffffffffffffffffffffffffff168273ffffffffffffffffffffffffffffffffffffffff1603610b27575f6040517fec442f05000000000000000000000000000000000000000000000000000000008152600401610b1e9190611786565b60405180910390fd5b610b325f8383610e03565b5050565b610bb0838473ffffffffffffffffffffffffffffffffffffffff1663a9059cbb8585604051602401610b6992919061179f565b604051602081830303815290604052915060e01b6020820180517bffffffffffffffffffffffffffffffffffffffffffffffffffffffff838183161783525050505061101c565b505050565b5f73ffffffffffffffffffffffffffffffffffffffff168273ffffffffffffffffffffffffffffffffffffffff1603610c25575f6040517f96c6fd1e000000000000000000000000000000000000000000000000000000008152600401610c1c9190611786565b60405180910390fd5b610c30825f83610e03565b5050565b5f73ffffffffffffffffffffffffffffffffffffffff168473ffffffffffffffffffffffffffffffffffffffff1603610ca4575f6040517fe602df05000000000000000000000000000000000000000000000000000000008152600401610c9b9190611786565b60405180910390fd5b5f73ffffffffffffffffffffffffffffffffffffffff168373ffffffffffffffffffffffffffffffffffffffff1603610d14575f6040517f94280d62000000000000000000000000000000000000000000000000000000008152600401610d0b9190611786565b60405180910390fd5b8160015f8673ffffffffffffffffffffffffffffffffffffffff1673ffffffffffffffffffffffffffffffffffffffff1681526020019081526020015f205f8573ffffffffffffffffffffffffffffffffffffffff1673ffffffffffffffffffffffffffffffffffffffff1681526020019081526020015f20819055508015610dfd578273ffffffffffffffffffffffffffffffffffffffff168473ffffffffffffffffffffffffffffffffffffffff167f8c5be1e5ebec7d5bd14f71427d1e84f3dd0314c0f7b2291e5b200ac8c7c3b92584604051610df4919061141b565b60405180910390a35b50505050565b5f73ffffffffffffffffffffffffffffffffffffffff168373ffffffffffffffffffffffffffffffffffffffff1603610e53578060025f828254610e47919061164a565b92505081905550610f21565b5f805f8573ffffffffffffffffffffffffffffffffffffffff1673ffffffffffffffffffffffffffffffffffffffff1681526020019081526020015f2054905081811015610edc578381836040517fe450d38c000000000000000000000000000000000000000000000000000000008152600401610ed393929190611751565b60405180910390fd5b8181035f808673ffffffffffffffffffffffffffffffffffffffff1673ffffffffffffffffffffffffffffffffffffffff1681526020019081526020015f2081905550505b5f73ffffffffffffffffffffffffffffffffffffffff168273ffffffffffffffffffffffffffffffffffffffff1603610f68578060025f8282540392505081905550610fb2565b805f808473ffffffffffffffffffffffffffffffffffffffff1673ffffffffffffffffffffffffffffffffffffffff1681526020019081526020015f205f82825401925050819055505b8173ffffffffffffffffffffffffffffffffffffffff168373ffffffffffffffffffffffffffffffffffffffff167fddf252ad1be2c89b69c2b068fc378daa952ba7f163c4a11628f55a4df523b3ef8360405161100f919061141b565b60405180910390a3505050565b5f611046828473ffffffffffffffffffffffffffffffffffffffff166110b190919063ffffffff16565b90505f81511415801561106a57508080602001905181019061106891906117f0565b155b156110ac57826040517f5274afe70000000000000000000000000000000000000000000000000000000081526004016110a39190611786565b60405180910390fd5b505050565b60606110be83835f6110c6565b905092915050565b60608147101561110d57306040517fcd7860590000000000000000000000000000000000000000000000000000000081526004016111049190611786565b60405180910390fd5b5f808573ffffffffffffffffffffffffffffffffffffffff168486604051611135919061185f565b5f6040518083038185875af1925050503d805f811461116f576040519150601f19603f3d011682016040523d82523d5f602084013e611174565b606091505b509150915061118486838361118f565b925050509392505050565b6060826111a45761119f8261121c565b611214565b5f82511480156111ca57505f8473ffffffffffffffffffffffffffffffffffffffff163b145b1561120c57836040517f9996b3150000000000000000000000000000000000000000000000000000000081526004016112039190611786565b60405180910390fd5b819050611215565b5b9392505050565b5f8151111561122e5780518082602001fd5b6040517f1425ea4200000000000000000000000000000000000000000000000000000000815260040160405180910390fd5b5f81519050919050565b5f82825260208201905092915050565b5f5b8381101561129757808201518184015260208101905061127c565b5f8484015250505050565b5f601f19601f8301169050919050565b5f6112bc82611260565b6112c6818561126a565b93506112d681856020860161127a565b6112df816112a2565b840191505092915050565b5f6020820190508181035f83015261130281846112b2565b905092915050565b5f80fd5b5f73ffffffffffffffffffffffffffffffffffffffff82169050919050565b5f6113378261130e565b9050919050565b6113478161132d565b8114611351575f80fd5b50565b5f813590506113628161133e565b92915050565b5f819050919050565b61137a81611368565b8114611384575f80fd5b50565b5f8135905061139581611371565b92915050565b5f80604083850312156113b1576113b061130a565b5b5f6113be85828601611354565b92505060206113cf85828601611387565b9150509250929050565b5f8115159050919050565b6113ed816113d9565b82525050565b5f6020820190506114065f8301846113e4565b92915050565b61141581611368565b82525050565b5f60208201905061142e5f83018461140c565b92915050565b5f805f6060848603121561144b5761144a61130a565b5b5f61145886828701611354565b935050602061146986828701611354565b925050604061147a86828701611387565b9150509250925092565b5f60ff82169050919050565b61149981611484565b82525050565b5f6020820190506114b25f830184611490565b92915050565b5f602082840312156114cd576114cc61130a565b5b5f6114da84828501611354565b91505092915050565b5f819050919050565b5f6115066115016114fc8461130e565b6114e3565b61130e565b9050919050565b5f611517826114ec565b9050919050565b5f6115288261150d565b9050919050565b6115388161151e565b82525050565b5f6020820190506115515f83018461152f565b92915050565b5f6020828403121561156c5761156b61130a565b5b5f61157984828501611387565b91505092915050565b5f80604083850312156115985761159761130a565b5b5f6115a585828601611354565b92505060206115b685828601611354565b9150509250929050565b7f4e487b71000000000000000000000000000000000000000000000000000000005f52602260045260245ffd5b5f600282049050600182168061160457607f821691505b602082108103611617576116166115c0565b5b50919050565b7f4e487b71000000000000000000000000000000000000000000000000000000005f52601160045260245ffd5b5f61165482611368565b915061165f83611368565b92508282019050808211156116775761167661161d565b5b92915050565b5f61168782611368565b915061169283611368565b92508282026116a081611368565b915082820484148315176116b7576116b661161d565b5b5092915050565b7f4e487b71000000000000000000000000000000000000000000000000000000005f52601260045260245ffd5b5f6116f582611368565b915061170083611368565b9250826117105761170f6116be565b5b828204905092915050565b5f60408201905061172e5f83018561140c565b61173b602083018461140c565b9392505050565b61174b8161132d565b82525050565b5f6060820190506117645f830186611742565b611771602083018561140c565b61177e604083018461140c565b949350505050565b5f6020820190506117995f830184611742565b92915050565b5f6040820190506117b25f830185611742565b6117bf602083018461140c565b9392505050565b6117cf816113d9565b81146117d9575f80fd5b50565b5f815190506117ea816117c6565b92915050565b5f602082840312156118055761180461130a565b5b5f611812848285016117dc565b91505092915050565b5f81519050919050565b5f81905092915050565b5f6118398261181b565b6118438185611825565b935061185381856020860161127a565b80840191505092915050565b5f61186a828461182f565b91508190509291505056fea2646970667358221220993ad47e87a82481c8859e3442f91ed207ddfee7abc14b020422131d2dffdd0364736f6c63430008140033","linkReferences":{}},"methodIdentifiers":{"EXCHANGE_RATE_PRECISION()":"3a01b964","allowance(address,address)":"dd62ed3e","approve(address,uint256)":"095ea7b3","balanceOf(address)":"70a08231","burn(address,uint256)":"9dc29fac","decimals()":"313ce567","getExchangeRate()":"e6aa216c","getUnderlying()":"9816f473","mint(address,uint256)":"40c10f19","name()":"06fdde03","symbol()":"95d89b41","totalSupply()":"18160ddd","transfer(address,uint256)":"a9059cbb","transferFrom(address,address,uint256)":"23b872dd","transferUnderlyingTo(address,uint256)":"4efecaa5","updateExchangeRate(uint256)":"b9e205ae"}}}}}