{"src/upgradedProtocol/ThunderLoanUpgraded.sol":{"ThunderLoanUpgraded":{"abi":[{"type":"constructor","inputs":[],"stateMutability":"nonpayable"},{"type":"function","name":"FEE_PRECISION","inputs":[],"outputs":[{"name":"","type":"uint256","internalType":"uint256"}],"stateMutability":"view"},{"type":"function","name":"UPGRADE_INTERFACE_VERSION","inputs":[],"outputs":[{"name":"","type":"string","internalType":"string"}],"stateMutability":"view"},{"type":"function","name":"deposit","inputs":[{"name":"token","type":"address","internalType":"contract IERC20"},{"name":"amount","type":"uint256","internalType":"uint256"}],"outputs":[],"stateMutability":"nonpayable"},{"type":"function","name":"flashloan","inputs":[{"name":"receiverAddress","type":"address","internalType":"address"},{"name":"token","type":"address","internalType":"contract IERC20"},{"name":"amount","type":"uint256","internalType":"uint256"},{"name":"params","type":"bytes","internalType":"bytes"}],"outputs":[],"stateMutability":"nonpayable"},{"type":"function","name":"getAssetFromToken","inputs":[{"name":"token","type":"address","internalType":"contract IERC20"}],"outputs":[{"name":"","type":"address","internalType":"contract AssetToken"}],"stateMutability":"view"},{"type":"function","name":"getCalculatedFee","inputs":[{"name":"token","type":"address","internalType":"contract IERC20"},{"name":"amount","type":"uint256","internalType":"uint256"}],"outputs":[{"name":"fee","type":"uint256","internalType":"uint256"}],"stateMutability":"view"},{"type":"function","name":"getFee","inputs":[],"outputs":[{"name":"","type":"uint256","internalType":"uint256"}],"stateMutability":"view"},{"type":"function","name":"getPoolFactoryAddress","inputs":[],"outputs":[{"name":"","type":"address","internalType":"address"}],"stateMutability":"view"},{"type":"function","name":"getPrice","inputs":[{"name":"token","type":"address","internalType":"address"}],"outputs":[{"name":"","type":"uint256","internalType":"uint256"}],"stateMutability":"view"},{"type":"function","name":"getPriceInWeth","inputs":[{"name":"token","type":"address","internalType":"address"}],"outputs":[{"name":"","type":"uint256","internalType":"uint256"}],"stateMutability":"view"},{"type":"function","name":"initialize","inputs":[{"name":"tswapAddress","type":"address","internalType":"address"}],"outputs":[],"stateMutability":"nonpayable"},{"type":"function","name":"isAllowedToken","inputs":[{"name":"token","type":"address","internalType":"contract IERC20"}],"outputs":[{"name":"","type":"bool","internalType":"bool"}],"stateMutability":"view"},{"type":"function","name":"isCurrentlyFlashLoaning","inputs":[{"name":"token","type":"address","internalType":"contract IERC20"}],"outputs":[{"name":"","type":"bool","internalType":"bool"}],"stateMutability":"view"},{"type":"function","name":"owner","inputs":[],"outputs":[{"name":"","type":"address","internalType":"address"}],"stateMutability":"view"},{"type":"function","name":"proxiableUUID","inputs":[],"outputs":[{"name":"","type":"bytes32","internalType":"bytes32"}],"stateMutability":"view"},{"type":"function","name":"redeem","inputs":[{"name":"token","type":"address","internalType":"contract IERC20"},{"name":"amountOfAssetToken","type":"uint256","internalType":"uint256"}],"outputs":[],"stateMutability":"nonpayable"},{"type":"function","name":"renounceOwnership","inputs":[],"outputs":[],"stateMutability":"nonpayable"},{"type":"function","name":"repay","inputs":[{"name":"token","type":"address","internalType":"contract IERC20"},{"name":"amount","type":"uint256","internalType":"uint256"}],"outputs":[],"stateMutability":"nonpayable"},{"type":"function","name":"s_tokenToAssetToken","inputs":[{"name":"","type":"address","internalType":"contract IERC20"}],"outputs":[{"name":"","type":"address","internalType":"contract AssetToken"}],"stateMutability":"view"},{"type":"function","name":"setAllowedToken","inputs":[{"name":"token","type":"address","internalType":"contract IERC20"},{"name":"allowed","type":"bool","internalType":"bool"}],"outputs":[{"name":"","type":"address","internalType":"contract AssetToken"}],"stateMutability":"nonpayable"},{"type":"function","name":"transferOwnership","inputs":[{"name":"newOwner","type":"address","internalType":"address"}],"outputs":[],"stateMutability":"nonpayable"},{"type":"function","name":"updateFlashLoanFee","inputs":[{"name":"newFee","type":"uint256","internalType":"uint256"}],"outputs":[],"stateMutability":"nonpayable"},{"type":"function","name":"upgradeToAndCall","inputs":[{"name":"newImplementation","type":"address","internalType":"address"},{"name":"data","type":"bytes","internalType":"bytes"}],"outputs":[],"stateMutability":"payable"},{"type":"event","name":"AllowedTokenSet","inputs":[{"name":"token","type":"address","indexed":true,"internalType":"contract IERC20"},{"name":"asset","type":"address","indexed":true,"internalType":"contract AssetToken"},{"name":"allowed","type":"bool","indexed":false,"internalType":"bool"}],"anonymous":false},{"type":"event","name":"Deposit","inputs":[{"name":"account","type":"address","indexed":true,"internalType":"address"},{"name":"token","type":"address","indexed":true,"internalType":"contract IERC20"},{"name":"amount","type":"uint256","indexed":false,"internalType":"uint256"}],"anonymous":false},{"type":"event","name":"FlashLoan","inputs":[{"name":"receiverAddress","type":"address","indexed":true,"internalType":"address"},{"name":"token","type":"address","indexed":true,"internalType":"contract IERC20"},{"name":"amount","type":"uint256","indexed":false,"internalType":"uint256"},{"name":"fee","type":"uint256","indexed":false,"internalType":"uint256"},{"name":"params","type":"bytes","indexed":false,"internalType":"bytes"}],"anonymous":false},{"type":"event","name":"Initialized","inputs":[{"name":"version","type":"uint64","indexed":false,"internalType":"uint64"}],"anonymous":false},{"type":"event","name":"OwnershipTransferred","inputs":[{"name":"previousOwner","type":"address","indexed":true,"internalType":"address"},{"name":"newOwner","type":"address","indexed":true,"internalType":"address"}],"anonymous":false},{"type":"event","name":"Redeemed","inputs":[{"name":"account","type":"address","indexed":true,"internalType":"address"},{"name":"token","type":"address","indexed":true,"internalType":"contract IERC20"},{"name":"amountOfAssetToken","type":"uint256","indexed":false,"internalType":"uint256"},{"name":"amountOfUnderlying","type":"uint256","indexed":false,"internalType":"uint256"}],"anonymous":false},{"type":"event","name":"Upgraded","inputs":[{"name":"implementation","type":"address","indexed":true,"internalType":"address"}],"anonymous":false},{"type":"error","name":"AddressEmptyCode","inputs":[{"name":"target","type":"address","internalType":"address"}]},{"type":"error","name":"AddressInsufficientBalance","inputs":[{"name":"account","type":"address","internalType":"address"}]},{"type":"error","name":"ERC1967InvalidImplementation","inputs":[{"name":"implementation","type":"address","internalType":"address"}]},{"type":"error","name":"ERC1967NonPayable","inputs":[]},{"type":"error","name":"FailedInnerCall","inputs":[]},{"type":"error","name":"InvalidInitialization","inputs":[]},{"type":"error","name":"NotInitializing","inputs":[]},{"type":"error","name":"OwnableInvalidOwner","inputs":[{"name":"owner","type":"address","internalType":"address"}]},{"type":"error","name":"OwnableUnauthorizedAccount","inputs":[{"name":"account","type":"address","internalType":"address"}]},{"type":"error","name":"SafeERC20FailedOperation","inputs":[{"name":"token","type":"address","internalType":"address"}]},{"type":"error","name":"ThunderLoan__AlreadyAllowed","inputs":[]},{"type":"error","name":"ThunderLoan__BadNewFee","inputs":[]},{"type":"error","name":"ThunderLoan__CallerIsNotContract","inputs":[]},{"type":"error","name":"ThunderLoan__CantBeZero","inputs":[]},{"type":"error","name":"ThunderLoan__ExhangeRateCanOnlyIncrease","inputs":[]},{"type":"error","name":"ThunderLoan__NotAllowedToken","inputs":[{"name":"token","type":"address","internalType":"contract IERC20"}]},{"type":"error","name":"ThunderLoan__NotCurrentlyFlashLoaning","inputs":[]},{"type":"error","name":"ThunderLoan__NotEnoughTokenBalance","inputs":[{"name":"startingBalance","type":"uint256","internalType":"uint256"},{"name":"amount","type":"uint256","internalType":"uint256"}]},{"type":"error","name":"ThunderLoan__NotPaidBack","inputs":[{"name":"expectedEndingBalance","type":"uint256","internalType":"uint256"},{"name":"endingBalance","type":"uint256","internalType":"uint256"}]},{"type":"error","name":"UUPSUnauthorizedCallContext","inputs":[]},{"type":"error","name":"UUPSUnsupportedProxiableUUID","inputs":[{"name":"slot","type":"bytes32","internalType":"bytes32"}]}],"userdoc":{},"devdoc":{},"evm":{"bytecode":{"object":"60a06040523073ffffffffffffffffffffffffffffffffffffffff1660809073ffffffffffffffffffffffffffffffffffffffff1681525034801562000043575f80fd5b50620000546200005a60201b60201c565b620001c4565b5f6200006b6200015e60201b60201c565b9050805f0160089054906101000a900460ff1615620000b6576040517ff92ee8a900000000000000000000000000000000000000000000000000000000815260040160405180910390fd5b67ffffffffffffffff8016815f015f9054906101000a900467ffffffffffffffff1667ffffffffffffffff16146200015b5767ffffffffffffffff815f015f6101000a81548167ffffffffffffffff021916908367ffffffffffffffff1602179055507fc7f505b2f371ae2175ee4913f4499e1f2633a7b5936321eed1cdaeb6115181d267ffffffffffffffff604051620001529190620001a9565b60405180910390a15b50565b5f7ff0c57e16840df040f15088dc2f81fe391c3923bec73e23a9662efc9c229c6a00905090565b5f67ffffffffffffffff82169050919050565b620001a38162000185565b82525050565b5f602082019050620001be5f83018462000198565b92915050565b6080516158c9620001eb5f395f8181611f8201528181611fd801526121a201526158c95ff3fe6080604052600436106200015d575f3560e01c806370a1ed8911620000c6578063c4d66de81162000078578063c4d66de814620004df578063cbe230c3146200050c578063ced72f87146200054f578063d8566874146200057e578063e63a391f14620005ab578063f2fde38b14620005da576200015d565b806370a1ed8914620003b3578063715018a614620003f65780638aaa2284146200040f5780638da5cb5b14620004525780638f3443cb1462000481578063ad3cb1cc14620004b0576200015d565b806346638b10116200012057806346638b10146200028457806347e7ef2414620002c75780634f1ef28614620002f457806352d1902d146200031457806363ad2c41146200034357806367ebd7381462000370576200015d565b80631e9a6950146200016157806322867d78146200018e5780632d85a7db14620001bb578063396ecd7814620001fe57806341976e091462000241575b5f80fd5b3480156200016d575f80fd5b506200018c600480360381019062000186919062002aeb565b62000607565b005b3480156200019a575f80fd5b50620001b96004803603810190620001b3919062002aeb565b620009e4565b005b348015620001c7575f80fd5b50620001e66004803603810190620001e0919062002aeb565b62000af9565b604051620001f5919062002b41565b60405180910390f35b3480156200020a575f80fd5b5062000229600480360381019062000223919062002b5c565b62000b58565b60405162000238919062002ba8565b60405180910390f35b3480156200024d575f80fd5b506200026c600480360381019062000266919062002bf2565b62000baa565b6040516200027b919062002b41565b60405180910390f35b34801562000290575f80fd5b50620002af6004803603810190620002a9919062002b5c565b62000bbd565b604051620002be919062002c89565b60405180910390f35b348015620002d3575f80fd5b50620002f26004803603810190620002ec919062002aeb565b62000c22565b005b6200031260048036038101906200030c919062002dfc565b62000f92565b005b34801562000320575f80fd5b506200032b62000fb7565b6040516200033a919062002e7a565b60405180910390f35b3480156200034f575f80fd5b506200036e600480360381019062000368919062002efb565b62000fea565b005b3480156200037c575f80fd5b506200039b600480360381019062000395919062002b5c565b62001569565b604051620003aa919062002c89565b60405180910390f35b348015620003bf575f80fd5b50620003de6004803603810190620003d8919062002bf2565b62001599565b604051620003ed919062002b41565b60405180910390f35b34801562000402575f80fd5b506200040d620016b1565b005b3480156200041b575f80fd5b506200043a600480360381019062000434919062002fbc565b620016c8565b60405162000449919062002c89565b60405180910390f35b3480156200045e575f80fd5b506200046962001b28565b60405162000478919062003012565b60405180910390f35b3480156200048d575f80fd5b506200049862001b5f565b604051620004a7919062003012565b60405180910390f35b348015620004bc575f80fd5b50620004c762001b86565b604051620004d69190620030b1565b60405180910390f35b348015620004eb575f80fd5b506200050a600480360381019062000504919062002bf2565b62001bbf565b005b34801562000518575f80fd5b5062000537600480360381019062000531919062002b5c565b62001d6f565b60405162000546919062002ba8565b60405180910390f35b3480156200055b575f80fd5b506200056662001e03565b60405162000575919062002b41565b60405180910390f35b3480156200058a575f80fd5b50620005a96004803603810190620005a39190620030d3565b62001e0c565b005b348015620005b7575f80fd5b50620005c262001e63565b604051620005d1919062002b41565b60405180910390f35b348015620005e6575f80fd5b50620006056004803603810190620005ff919062002bf2565b62001e6f565b005b805f810362000642576040517f6df6d1fc00000000000000000000000000000000000000000000000000000000815260040160405180910390fd5b826200064e8162001d6f565b6200069257806040517f83ebfce700000000000000000000000000000000000000000000000000000000815260040162000689919062003127565b60405180910390fd5b5f60015f8673ffffffffffffffffffffffffffffffffffffffff1673ffffffffffffffffffffffffffffffffffffffff1681526020019081526020015f205f9054906101000a900473ffffffffffffffffffffffffffffffffffffffff1690505f8173ffffffffffffffffffffffffffffffffffffffff1663e6aa216c6040518163ffffffff1660e01b8152600401602060405180830381865afa1580156200073d573d5f803e3d5ffd5b505050506040513d601f19601f8201168201806040525081019062000763919062003158565b90507fffffffffffffffffffffffffffffffffffffffffffffffffffffffffffffffff85036200080d578173ffffffffffffffffffffffffffffffffffffffff166370a08231336040518263ffffffff1660e01b8152600401620007c8919062003012565b602060405180830381865afa158015620007e4573d5f803e3d5ffd5b505050506040513d601f19601f820116820180604052508101906200080a919062003158565b94505b5f8273ffffffffffffffffffffffffffffffffffffffff16633a01b9646040518163ffffffff1660e01b8152600401602060405180830381865afa15801562000858573d5f803e3d5ffd5b505050506040513d601f19601f820116820180604052508101906200087e919062003158565b82876200088c9190620031b5565b6200089891906200322c565b90508673ffffffffffffffffffffffffffffffffffffffff163373ffffffffffffffffffffffffffffffffffffffff167f5cdf07ad0fc222442720b108e3ed4c4640f0fadc2ab2253e66f259a0fea834808884604051620008fb92919062003263565b60405180910390a38273ffffffffffffffffffffffffffffffffffffffff16639dc29fac33886040518363ffffffff1660e01b8152600401620009409291906200328e565b5f604051808303815f87803b15801562000958575f80fd5b505af11580156200096b573d5f803e3d5ffd5b505050508273ffffffffffffffffffffffffffffffffffffffff16634efecaa533836040518363ffffffff1660e01b8152600401620009ac9291906200328e565b5f604051808303815f87803b158015620009c4575f80fd5b505af1158015620009d7573d5f803e3d5ffd5b5050505050505050505050565b60035f8373ffffffffffffffffffffffffffffffffffffffff1673ffffffffffffffffffffffffffffffffffffffff1681526020019081526020015f205f9054906101000a900460ff1662000a65576040517f39dd70c300000000000000000000000000000000000000000000000000000000815260040160405180910390fd5b5f60015f8473ffffffffffffffffffffffffffffffffffffffff1673ffffffffffffffffffffffffffffffffffffffff1681526020019081526020015f205f9054906101000a900473ffffffffffffffffffffffffffffffffffffffff16905062000af43382848673ffffffffffffffffffffffffffffffffffffffff1662001efa909392919063ffffffff16565b505050565b5f80670de0b6b3a764000062000b0f8562001599565b8462000b1c9190620031b5565b62000b2891906200322c565b9050670de0b6b3a76400006002548262000b439190620031b5565b62000b4f91906200322c565b91505092915050565b5f60035f8373ffffffffffffffffffffffffffffffffffffffff1673ffffffffffffffffffffffffffffffffffffffff1681526020019081526020015f205f9054906101000a900460ff169050919050565b5f62000bb68262001599565b9050919050565b5f60015f8373ffffffffffffffffffffffffffffffffffffffff1673ffffffffffffffffffffffffffffffffffffffff1681526020019081526020015f205f9054906101000a900473ffffffffffffffffffffffffffffffffffffffff169050919050565b805f810362000c5d576040517f6df6d1fc00000000000000000000000000000000000000000000000000000000815260040160405180910390fd5b8262000c698162001d6f565b62000cad57806040517f83ebfce700000000000000000000000000000000000000000000000000000000815260040162000ca4919062003127565b60405180910390fd5b5f60015f8673ffffffffffffffffffffffffffffffffffffffff1673ffffffffffffffffffffffffffffffffffffffff1681526020019081526020015f205f9054906101000a900473ffffffffffffffffffffffffffffffffffffffff1690505f8173ffffffffffffffffffffffffffffffffffffffff1663e6aa216c6040518163ffffffff1660e01b8152600401602060405180830381865afa15801562000d58573d5f803e3d5ffd5b505050506040513d601f19601f8201168201806040525081019062000d7e919062003158565b90505f818373ffffffffffffffffffffffffffffffffffffffff16633a01b9646040518163ffffffff1660e01b8152600401602060405180830381865afa15801562000dcc573d5f803e3d5ffd5b505050506040513d601f19601f8201168201806040525081019062000df2919062003158565b8762000dff9190620031b5565b62000e0b91906200322c565b90508673ffffffffffffffffffffffffffffffffffffffff163373ffffffffffffffffffffffffffffffffffffffff167f5548c837ab068cf56a2c2479df0882a4922fd203edb7517321831d95078c5f628860405162000e6c919062002b41565b60405180910390a38273ffffffffffffffffffffffffffffffffffffffff166340c10f1933836040518363ffffffff1660e01b815260040162000eb19291906200328e565b5f604051808303815f87803b15801562000ec9575f80fd5b505af115801562000edc573d5f803e3d5ffd5b505050505f62000eed888862000af9565b90508373ffffffffffffffffffffffffffffffffffffffff1663b9e205ae826040518263ffffffff1660e01b815260040162000f2a919062002b41565b5f604051808303815f87803b15801562000f42575f80fd5b505af115801562000f55573d5f803e3d5ffd5b5050505062000f883385898b73ffffffffffffffffffffffffffffffffffffffff1662001efa909392919063ffffffff16565b5050505050505050565b62000f9c62001f80565b62000fa7826200206a565b62000fb3828262002077565b5050565b5f62000fc2620021a0565b7f360894a13ba1a3210667c828492db98dca3e2076cc3735a920a3ca505d382bbc5f1b905090565b825f810362001025576040517f6df6d1fc00000000000000000000000000000000000000000000000000000000815260040160405180910390fd5b84620010318162001d6f565b6200107557806040517f83ebfce70000000000000000000000000000000000000000000000000000000081526004016200106c919062003127565b60405180910390fd5b5f60015f8873ffffffffffffffffffffffffffffffffffffffff1673ffffffffffffffffffffffffffffffffffffffff1681526020019081526020015f205f9054906101000a900473ffffffffffffffffffffffffffffffffffffffff1690505f8773ffffffffffffffffffffffffffffffffffffffff166370a08231836040518263ffffffff1660e01b815260040162001111919062003012565b602060405180830381865afa1580156200112d573d5f803e3d5ffd5b505050506040513d601f19601f8201168201806040525081019062001153919062003158565b9050808711156200119f5780876040517f374fa7330000000000000000000000000000000000000000000000000000000081526004016200119692919062003263565b60405180910390fd5b5f8973ffffffffffffffffffffffffffffffffffffffff163b03620011f0576040517f9e70e7c500000000000000000000000000000000000000000000000000000000815260040160405180910390fd5b5f620011fd898962000af9565b90508273ffffffffffffffffffffffffffffffffffffffff1663b9e205ae826040518263ffffffff1660e01b81526004016200123a919062002b41565b5f604051808303815f87803b15801562001252575f80fd5b505af115801562001265573d5f803e3d5ffd5b505050508873ffffffffffffffffffffffffffffffffffffffff168a73ffffffffffffffffffffffffffffffffffffffff167fbeeba37359a9db8ffa59be6f1cb1fed1e2a24b099a4799630876ddb8c87eedb98a848b8b604051620012ce9493929190620032fb565b60405180910390a3600160035f8b73ffffffffffffffffffffffffffffffffffffffff1673ffffffffffffffffffffffffffffffffffffffff1681526020019081526020015f205f6101000a81548160ff0219169083151502179055508273ffffffffffffffffffffffffffffffffffffffff16634efecaa58b8a6040518363ffffffff1660e01b8152600401620013689291906200328e565b5f604051808303815f87803b15801562001380575f80fd5b505af115801562001393573d5f803e3d5ffd5b5050505062001423898983338b8b604051602401620013b8969594939291906200333f565b604051602081830303815290604052631b11d0ff60e01b6020820180517bffffffffffffffffffffffffffffffffffffffffffffffffffffffff83818316178352505050508b73ffffffffffffffffffffffffffffffffffffffff166200222890919063ffffffff16565b505f8973ffffffffffffffffffffffffffffffffffffffff166370a08231856040518263ffffffff1660e01b815260040162001460919062003012565b602060405180830381865afa1580156200147c573d5f803e3d5ffd5b505050506040513d601f19601f82011682018060405250810190620014a2919062003158565b90508183620014b29190620033a3565b81101562001508578183620014c89190620033a3565b816040517f819969c0000000000000000000000000000000000000000000000000000000008152600401620014ff92919062003263565b60405180910390fd5b5f60035f8c73ffffffffffffffffffffffffffffffffffffffff1673ffffffffffffffffffffffffffffffffffffffff1681526020019081526020015f205f6101000a81548160ff0219169083151502179055505050505050505050505050565b6001602052805f5260405f205f915054906101000a900473ffffffffffffffffffffffffffffffffffffffff1681565b5f805f8054906101000a900473ffffffffffffffffffffffffffffffffffffffff1673ffffffffffffffffffffffffffffffffffffffff1663bbe4f6db846040518263ffffffff1660e01b8152600401620015f5919062003012565b602060405180830381865afa15801562001611573d5f803e3d5ffd5b505050506040513d601f19601f82011682018060405250810190620016379190620033f3565b90508073ffffffffffffffffffffffffffffffffffffffff1663b7e7fdcc6040518163ffffffff1660e01b8152600401602060405180830381865afa15801562001683573d5f803e3d5ffd5b505050506040513d601f19601f82011682018060405250810190620016a9919062003158565b915050919050565b620016bb6200223f565b620016c65f620022cf565b565b5f620016d36200223f565b8115620019f7575f73ffffffffffffffffffffffffffffffffffffffff1660015f8573ffffffffffffffffffffffffffffffffffffffff1673ffffffffffffffffffffffffffffffffffffffff1681526020019081526020015f205f9054906101000a900473ffffffffffffffffffffffffffffffffffffffff1673ffffffffffffffffffffffffffffffffffffffff16146200179c576040517ff3c9ddf400000000000000000000000000000000000000000000000000000000815260040160405180910390fd5b5f8373ffffffffffffffffffffffffffffffffffffffff166306fdde036040518163ffffffff1660e01b81526004015f60405180830381865afa158015620017e6573d5f803e3d5ffd5b505050506040513d5f823e3d601f19601f82011682018060405250810190620018109190620034d4565b60405160200162001822919062003589565b60405160208183030381529060405290505f8473ffffffffffffffffffffffffffffffffffffffff166395d89b416040518163ffffffff1660e01b81526004015f60405180830381865afa1580156200187d573d5f803e3d5ffd5b505050506040513d5f823e3d601f19601f82011682018060405250810190620018a79190620034d4565b604051602001620018b99190620035d8565b60405160208183030381529060405290505f30868484604051620018dd9062002a20565b620018ec949392919062003601565b604051809103905ff08015801562001906573d5f803e3d5ffd5b5090508060015f8873ffffffffffffffffffffffffffffffffffffffff1673ffffffffffffffffffffffffffffffffffffffff1681526020019081526020015f205f6101000a81548173ffffffffffffffffffffffffffffffffffffffff021916908373ffffffffffffffffffffffffffffffffffffffff1602179055508073ffffffffffffffffffffffffffffffffffffffff168673ffffffffffffffffffffffffffffffffffffffff167fe4af36088768226b78a1f394c84aec456100e7ca2b04e36783f8e9a7cc79a0c287604051620019e3919062002ba8565b60405180910390a380935050505062001b22565b5f60015f8573ffffffffffffffffffffffffffffffffffffffff1673ffffffffffffffffffffffffffffffffffffffff1681526020019081526020015f205f9054906101000a900473ffffffffffffffffffffffffffffffffffffffff16905060015f8573ffffffffffffffffffffffffffffffffffffffff1673ffffffffffffffffffffffffffffffffffffffff1681526020019081526020015f205f6101000a81549073ffffffffffffffffffffffffffffffffffffffff02191690558073ffffffffffffffffffffffffffffffffffffffff168473ffffffffffffffffffffffffffffffffffffffff167fe4af36088768226b78a1f394c84aec456100e7ca2b04e36783f8e9a7cc79a0c28560405162001b15919062002ba8565b60405180910390a3809150505b92915050565b5f8062001b34620023a2565b9050805f015f9054906101000a900473ffffffffffffffffffffffffffffffffffffffff1691505090565b5f805f9054906101000a900473ffffffffffffffffffffffffffffffffffffffff16905090565b6040518060400160405280600581526020017f352e302e3000000000000000000000000000000000000000000000000000000081525081565b5f62001bca620023c9565b90505f815f0160089054906101000a900460ff161590505f825f015f9054906101000a900467ffffffffffffffff1690505f808267ffffffffffffffff1614801562001c135750825b90505f60018367ffffffffffffffff1614801562001c4757505f3073ffffffffffffffffffffffffffffffffffffffff163b145b90508115801562001c56575080155b1562001c8e576040517ff92ee8a900000000000000000000000000000000000000000000000000000000815260040160405180910390fd5b6001855f015f6101000a81548167ffffffffffffffff021916908367ffffffffffffffff160217905550831562001cdc576001855f0160086101000a81548160ff0219169083151502179055505b62001ce733620023f0565b62001cf162002408565b62001cfc8662002414565b660aa87bee538000600281905550831562001d67575f855f0160086101000a81548160ff0219169083151502179055507fc7f505b2f371ae2175ee4913f4499e1f2633a7b5936321eed1cdaeb6115181d2600160405162001d5e9190620036ae565b60405180910390a15b505050505050565b5f8073ffffffffffffffffffffffffffffffffffffffff1660015f8473ffffffffffffffffffffffffffffffffffffffff1673ffffffffffffffffffffffffffffffffffffffff1681526020019081526020015f205f9054906101000a900473ffffffffffffffffffffffffffffffffffffffff1673ffffffffffffffffffffffffffffffffffffffff1614159050919050565b5f600254905090565b62001e166200223f565b670de0b6b3a764000081111562001e59576040517f958939ad00000000000000000000000000000000000000000000000000000000815260040160405180910390fd5b8060028190555050565b670de0b6b3a764000081565b62001e796200223f565b5f73ffffffffffffffffffffffffffffffffffffffff168173ffffffffffffffffffffffffffffffffffffffff160362001eec575f6040517f1e4fbdf700000000000000000000000000000000000000000000000000000000815260040162001ee3919062003012565b60405180910390fd5b62001ef781620022cf565b50565b62001f7a848573ffffffffffffffffffffffffffffffffffffffff166323b872dd86868660405160240162001f3293929190620036c9565b604051602081830303815290604052915060e01b6020820180517bffffffffffffffffffffffffffffffffffffffffffffffffffffffff83818316178352505050506200242c565b50505050565b7f000000000000000000000000000000000000000000000000000000000000000073ffffffffffffffffffffffffffffffffffffffff163073ffffffffffffffffffffffffffffffffffffffff1614806200203057507f000000000000000000000000000000000000000000000000000000000000000073ffffffffffffffffffffffffffffffffffffffff1662002017620024c9565b73ffffffffffffffffffffffffffffffffffffffff1614155b1562002068576040517fe07c8dba00000000000000000000000000000000000000000000000000000000815260040160405180910390fd5b565b620020746200223f565b50565b8173ffffffffffffffffffffffffffffffffffffffff166352d1902d6040518163ffffffff1660e01b8152600401602060405180830381865afa925050508015620020e257506040513d601f19601f82011682018060405250810190620020df919062003733565b60015b6200212657816040517f4c9c8ce30000000000000000000000000000000000000000000000000000000081526004016200211d919062003012565b60405180910390fd5b7f360894a13ba1a3210667c828492db98dca3e2076cc3735a920a3ca505d382bbc5f1b81146200218f57806040517faa1d49a400000000000000000000000000000000000000000000000000000000815260040162002186919062002e7a565b60405180910390fd5b6200219b83836200251e565b505050565b7f000000000000000000000000000000000000000000000000000000000000000073ffffffffffffffffffffffffffffffffffffffff163073ffffffffffffffffffffffffffffffffffffffff161462002226576040517fe07c8dba00000000000000000000000000000000000000000000000000000000815260040160405180910390fd5b565b60606200223783835f62002598565b905092915050565b620022496200266a565b73ffffffffffffffffffffffffffffffffffffffff166200226962001b28565b73ffffffffffffffffffffffffffffffffffffffff1614620022cd576200228f6200266a565b6040517f118cdaa7000000000000000000000000000000000000000000000000000000008152600401620022c4919062003012565b60405180910390fd5b565b5f620022da620023a2565b90505f815f015f9054906101000a900473ffffffffffffffffffffffffffffffffffffffff16905082825f015f6101000a81548173ffffffffffffffffffffffffffffffffffffffff021916908373ffffffffffffffffffffffffffffffffffffffff1602179055508273ffffffffffffffffffffffffffffffffffffffff168173ffffffffffffffffffffffffffffffffffffffff167f8be0079c531659141344cd1fd0a4f28419497f9722a3daafe3b4186f6b6457e060405160405180910390a3505050565b5f7f9016d09d72d40fdae2fd8ceac6b6234c7706214fd39c1cd1e609a0528c199300905090565b5f7ff0c57e16840df040f15088dc2f81fe391c3923bec73e23a9662efc9c229c6a00905090565b620023fa62002671565b6200240581620026b4565b50565b6200241262002671565b565b6200241e62002671565b62002429816200273f565b50565b5f62002458828473ffffffffffffffffffffffffffffffffffffffff166200222890919063ffffffff16565b90505f8151141580156200247f5750808060200190518101906200247d919062003779565b155b15620024c457826040517f5274afe7000000000000000000000000000000000000000000000000000000008152600401620024bb919062003012565b60405180910390fd5b505050565b5f620024f77f360894a13ba1a3210667c828492db98dca3e2076cc3735a920a3ca505d382bbc5f1b6200278b565b5f015f9054906101000a900473ffffffffffffffffffffffffffffffffffffffff16905090565b620025298262002794565b8173ffffffffffffffffffffffffffffffffffffffff167fbc7cd75a20ee27fd9adebab32041f755214dbc6bffa90cc0225b39da2e5c2d3b60405160405180910390a25f81511115620025895762002582828262002862565b5062002594565b62002593620028e8565b5b5050565b606081471015620025e257306040517fcd786059000000000000000000000000000000000000000000000000000000008152600401620025d9919062003012565b60405180910390fd5b5f808573ffffffffffffffffffffffffffffffffffffffff1684866040516200260c9190620037f3565b5f6040518083038185875af1925050503d805f811462002648576040519150601f19603f3d011682016040523d82523d5f602084013e6200264d565b606091505b50915091506200265f86838362002925565b925050509392505050565b5f33905090565b6200267b620029bb565b620026b2576040517fd7e6bcf800000000000000000000000000000000000000000000000000000000815260040160405180910390fd5b565b620026be62002671565b5f73ffffffffffffffffffffffffffffffffffffffff168173ffffffffffffffffffffffffffffffffffffffff160362002731575f6040517f1e4fbdf700000000000000000000000000000000000000000000000000000000815260040162002728919062003012565b60405180910390fd5b6200273c81620022cf565b50565b6200274962002671565b805f806101000a81548173ffffffffffffffffffffffffffffffffffffffff021916908373ffffffffffffffffffffffffffffffffffffffff16021790555050565b5f819050919050565b5f8173ffffffffffffffffffffffffffffffffffffffff163b03620027f257806040517f4c9c8ce3000000000000000000000000000000000000000000000000000000008152600401620027e9919062003012565b60405180910390fd5b80620028207f360894a13ba1a3210667c828492db98dca3e2076cc3735a920a3ca505d382bbc5f1b6200278b565b5f015f6101000a81548173ffffffffffffffffffffffffffffffffffffffff021916908373ffffffffffffffffffffffffffffffffffffffff16021790555050565b60605f808473ffffffffffffffffffffffffffffffffffffffff16846040516200288d9190620037f3565b5f60405180830381855af49150503d805f8114620028c7576040519150601f19603f3d011682016040523d82523d5f602084013e620028cc565b606091505b5091509150620028de85838362002925565b9250505092915050565b5f34111562002923576040517fb398979f00000000000000000000000000000000000000000000000000000000815260040160405180910390fd5b565b6060826200293e576200293882620029db565b620029b3565b5f82511480156200296557505f8473ffffffffffffffffffffffffffffffffffffffff163b145b15620029aa57836040517f9996b315000000000000000000000000000000000000000000000000000000008152600401620029a1919062003012565b60405180910390fd5b819050620029b4565b5b9392505050565b5f620029c6620023c9565b5f0160089054906101000a900460ff16905090565b5f81511115620029ee5780518082602001fd5b6040517f1425ea4200000000000000000000000000000000000000000000000000000000815260040160405180910390fd5b612088806200380c83390190565b5f604051905090565b5f80fd5b5f80fd5b5f73ffffffffffffffffffffffffffffffffffffffff82169050919050565b5f62002a6a8262002a3f565b9050919050565b5f62002a7d8262002a5e565b9050919050565b62002a8f8162002a71565b811462002a9a575f80fd5b50565b5f8135905062002aad8162002a84565b92915050565b5f819050919050565b62002ac78162002ab3565b811462002ad2575f80fd5b50565b5f8135905062002ae58162002abc565b92915050565b5f806040838503121562002b045762002b0362002a37565b5b5f62002b138582860162002a9d565b925050602062002b268582860162002ad5565b9150509250929050565b62002b3b8162002ab3565b82525050565b5f60208201905062002b565f83018462002b30565b92915050565b5f6020828403121562002b745762002b7362002a37565b5b5f62002b838482850162002a9d565b91505092915050565b5f8115159050919050565b62002ba28162002b8c565b82525050565b5f60208201905062002bbd5f83018462002b97565b92915050565b62002bce8162002a5e565b811462002bd9575f80fd5b50565b5f8135905062002bec8162002bc3565b92915050565b5f6020828403121562002c0a5762002c0962002a37565b5b5f62002c198482850162002bdc565b91505092915050565b5f819050919050565b5f62002c4b62002c4562002c3f8462002a3f565b62002c22565b62002a3f565b9050919050565b5f62002c5e8262002c2b565b9050919050565b5f62002c718262002c52565b9050919050565b62002c838162002c65565b82525050565b5f60208201905062002c9e5f83018462002c78565b92915050565b5f80fd5b5f80fd5b5f601f19601f8301169050919050565b7f4e487b71000000000000000000000000000000000000000000000000000000005f52604160045260245ffd5b62002cf48262002cac565b810181811067ffffffffffffffff8211171562002d165762002d1562002cbc565b5b80604052505050565b5f62002d2a62002a2e565b905062002d38828262002ce9565b919050565b5f67ffffffffffffffff82111562002d5a5762002d5962002cbc565b5b62002d658262002cac565b9050602081019050919050565b828183375f83830152505050565b5f62002d9662002d908462002d3d565b62002d1f565b90508281526020810184848401111562002db55762002db462002ca8565b5b62002dc284828562002d72565b509392505050565b5f82601f83011262002de15762002de062002ca4565b5b813562002df384826020860162002d80565b91505092915050565b5f806040838503121562002e155762002e1462002a37565b5b5f62002e248582860162002bdc565b925050602083013567ffffffffffffffff81111562002e485762002e4762002a3b565b5b62002e568582860162002dca565b9150509250929050565b5f819050919050565b62002e748162002e60565b82525050565b5f60208201905062002e8f5f83018462002e69565b92915050565b5f80fd5b5f80fd5b5f8083601f84011262002eb55762002eb462002ca4565b5b8235905067ffffffffffffffff81111562002ed55762002ed462002e95565b5b60208301915083600182028301111562002ef45762002ef362002e99565b5b9250929050565b5f805f805f6080868803121562002f175762002f1662002a37565b5b5f62002f268882890162002bdc565b955050602062002f398882890162002a9d565b945050604062002f4c8882890162002ad5565b935050606086013567ffffffffffffffff81111562002f705762002f6f62002a3b565b5b62002f7e8882890162002e9d565b92509250509295509295909350565b62002f988162002b8c565b811462002fa3575f80fd5b50565b5f8135905062002fb68162002f8d565b92915050565b5f806040838503121562002fd55762002fd462002a37565b5b5f62002fe48582860162002a9d565b925050602062002ff78582860162002fa6565b9150509250929050565b6200300c8162002a5e565b82525050565b5f602082019050620030275f83018462003001565b92915050565b5f81519050919050565b5f82825260208201905092915050565b5f5b838110156200306657808201518184015260208101905062003049565b5f8484015250505050565b5f6200307d826200302d565b62003089818562003037565b93506200309b81856020860162003047565b620030a68162002cac565b840191505092915050565b5f6020820190508181035f830152620030cb818462003071565b905092915050565b5f60208284031215620030eb57620030ea62002a37565b5b5f620030fa8482850162002ad5565b91505092915050565b5f6200310f8262002c52565b9050919050565b620031218162003103565b82525050565b5f6020820190506200313c5f83018462003116565b92915050565b5f81519050620031528162002abc565b92915050565b5f6020828403121562003170576200316f62002a37565b5b5f6200317f8482850162003142565b91505092915050565b7f4e487b71000000000000000000000000000000000000000000000000000000005f52601160045260245ffd5b5f620031c18262002ab3565b9150620031ce8362002ab3565b9250828202620031de8162002ab3565b91508282048414831517620031f857620031f762003188565b5b5092915050565b7f4e487b71000000000000000000000000000000000000000000000000000000005f52601260045260245ffd5b5f620032388262002ab3565b9150620032458362002ab3565b925082620032585762003257620031ff565b5b828204905092915050565b5f604082019050620032785f83018562002b30565b62003287602083018462002b30565b9392505050565b5f604082019050620032a35f83018562003001565b620032b2602083018462002b30565b9392505050565b5f82825260208201905092915050565b5f620032d68385620032b9565b9350620032e583858462002d72565b620032f08362002cac565b840190509392505050565b5f606082019050620033105f83018762002b30565b6200331f602083018662002b30565b818103604083015262003334818486620032c9565b905095945050505050565b5f60a082019050620033545f83018962003001565b62003363602083018862002b30565b62003372604083018762002b30565b62003381606083018662003001565b818103608083015262003396818486620032c9565b9050979650505050505050565b5f620033af8262002ab3565b9150620033bc8362002ab3565b9250828201905080821115620033d757620033d662003188565b5b92915050565b5f81519050620033ed8162002bc3565b92915050565b5f602082840312156200340b576200340a62002a37565b5b5f6200341a84828501620033dd565b91505092915050565b5f67ffffffffffffffff82111562003440576200343f62002cbc565b5b6200344b8262002cac565b9050602081019050919050565b5f6200346e620034688462003423565b62002d1f565b9050828152602081018484840111156200348d576200348c62002ca8565b5b6200349a84828562003047565b509392505050565b5f82601f830112620034b957620034b862002ca4565b5b8151620034cb84826020860162003458565b91505092915050565b5f60208284031215620034ec57620034eb62002a37565b5b5f82015167ffffffffffffffff8111156200350c576200350b62002a3b565b5b6200351a84828501620034a2565b91505092915050565b7f5468756e6465724c6f616e200000000000000000000000000000000000000000815250565b5f81905092915050565b5f6200355f826200302d565b6200356b818562003549565b93506200357d81856020860162003047565b80840191505092915050565b5f620035958262003523565b600c82019150620035a7828462003553565b915081905092915050565b7f746c000000000000000000000000000000000000000000000000000000000000815250565b5f620035e482620035b2565b600282019150620035f6828462003553565b915081905092915050565b5f608082019050620036165f83018762003001565b62003625602083018662003116565b818103604083015262003639818562003071565b905081810360608301526200364f818462003071565b905095945050505050565b5f819050919050565b5f67ffffffffffffffff82169050919050565b5f62003696620036906200368a846200365a565b62002c22565b62003663565b9050919050565b620036a88162003676565b82525050565b5f602082019050620036c35f8301846200369d565b92915050565b5f606082019050620036de5f83018662003001565b620036ed602083018562003001565b620036fc604083018462002b30565b949350505050565b6200370f8162002e60565b81146200371a575f80fd5b50565b5f815190506200372d8162003704565b92915050565b5f602082840312156200374b576200374a62002a37565b5b5f6200375a848285016200371d565b91505092915050565b5f81519050620037738162002f8d565b92915050565b5f6020828403121562003791576200379062002a37565b5b5f620037a08482850162003763565b91505092915050565b5f81519050919050565b5f81905092915050565b5f620037c982620037a9565b620037d58185620037b3565b9350620037e781856020860162003047565b80840191505092915050565b5f620038008284620037bd565b91508190509291505056fe60c060405234801562000010575f80fd5b5060405162002088380380620020888339818101604052810190620000369190620003d7565b81818160039081620000499190620006bb565b5080600490816200005b9190620006bb565b505050835f73ffffffffffffffffffffffffffffffffffffffff168173ffffffffffffffffffffffffffffffffffffffff1603620000c5576040517f9f1301a500000000000000000000000000000000000000000000000000000000815260040160405180910390fd5b835f73ffffffffffffffffffffffffffffffffffffffff168173ffffffffffffffffffffffffffffffffffffffff16036200012c576040517f9f1301a500000000000000000000000000000000000000000000000000000000815260040160405180910390fd5b8573ffffffffffffffffffffffffffffffffffffffff1660a08173ffffffffffffffffffffffffffffffffffffffff16815250508473ffffffffffffffffffffffffffffffffffffffff1660808173ffffffffffffffffffffffffffffffffffffffff1681525050670de0b6b3a76400006005819055505050505050506200079f565b5f604051905090565b5f80fd5b5f80fd5b5f73ffffffffffffffffffffffffffffffffffffffff82169050919050565b5f620001eb82620001c0565b9050919050565b620001fd81620001df565b811462000208575f80fd5b50565b5f815190506200021b81620001f2565b92915050565b5f6200022d82620001df565b9050919050565b6200023f8162000221565b81146200024a575f80fd5b50565b5f815190506200025d8162000234565b92915050565b5f80fd5b5f80fd5b5f601f19601f8301169050919050565b7f4e487b71000000000000000000000000000000000000000000000000000000005f52604160045260245ffd5b620002b3826200026b565b810181811067ffffffffffffffff82111715620002d557620002d46200027b565b5b80604052505050565b5f620002e9620001af565b9050620002f78282620002a8565b919050565b5f67ffffffffffffffff8211156200031957620003186200027b565b5b62000324826200026b565b9050602081019050919050565b5f5b838110156200035057808201518184015260208101905062000333565b5f8484015250505050565b5f620003716200036b84620002fc565b620002de565b90508281526020810184848401111562000390576200038f62000267565b5b6200039d84828562000331565b509392505050565b5f82601f830112620003bc57620003bb62000263565b5b8151620003ce8482602086016200035b565b91505092915050565b5f805f8060808587031215620003f257620003f1620001b8565b5b5f62000401878288016200020b565b945050602062000414878288016200024d565b935050604085015167ffffffffffffffff811115620004385762000437620001bc565b5b6200044687828801620003a5565b925050606085015167ffffffffffffffff8111156200046a5762000469620001bc565b5b6200047887828801620003a5565b91505092959194509250565b5f81519050919050565b7f4e487b71000000000000000000000000000000000000000000000000000000005f52602260045260245ffd5b5f6002820490506001821680620004d357607f821691505b602082108103620004e957620004e86200048e565b5b50919050565b5f819050815f5260205f209050919050565b5f6020601f8301049050919050565b5f82821b905092915050565b5f600883026200054d7fffffffffffffffffffffffffffffffffffffffffffffffffffffffffffffffff8262000510565b62000559868362000510565b95508019841693508086168417925050509392505050565b5f819050919050565b5f819050919050565b5f620005a36200059d620005978462000571565b6200057a565b62000571565b9050919050565b5f819050919050565b620005be8362000583565b620005d6620005cd82620005aa565b8484546200051c565b825550505050565b5f90565b620005ec620005de565b620005f9818484620005b3565b505050565b5b818110156200062057620006145f82620005e2565b600181019050620005ff565b5050565b601f8211156200066f576200063981620004ef565b620006448462000501565b8101602085101562000654578190505b6200066c620006638562000501565b830182620005fe565b50505b505050565b5f82821c905092915050565b5f620006915f198460080262000674565b1980831691505092915050565b5f620006ab838362000680565b9150826002028217905092915050565b620006c68262000484565b67ffffffffffffffff811115620006e257620006e16200027b565b5b620006ee8254620004bb565b620006fb82828562000624565b5f60209050601f83116001811462000731575f84156200071c578287015190505b6200072885826200069e565b86555062000797565b601f1984166200074186620004ef565b5f5b828110156200076a5784890151825560018201915060208501945060208101905062000743565b868310156200078a578489015162000786601f89168262000680565b8355505b6001600288020188555050505b505050505050565b60805160a0516118ab620007dd5f395f8181610433015281816104c601528181610696015261074b01525f8181610550015261067001526118ab5ff3fe608060405234801561000f575f80fd5b50600436106100fe575f3560e01c806370a0823111610095578063a9059cbb11610064578063a9059cbb1461029a578063b9e205ae146102ca578063dd62ed3e146102e6578063e6aa216c14610316576100fe565b806370a082311461021257806395d89b41146102425780639816f473146102605780639dc29fac1461027e576100fe565b8063313ce567116100d1578063313ce5671461019e5780633a01b964146101bc57806340c10f19146101da5780634efecaa5146101f6576100fe565b806306fdde0314610102578063095ea7b31461012057806318160ddd1461015057806323b872dd1461016e575b5f80fd5b61010a610334565b60405161011791906112ea565b60405180910390f35b61013a6004803603810190610135919061139b565b6103c4565b60405161014791906113f3565b60405180910390f35b6101586103e6565b604051610165919061141b565b60405180910390f35b61018860048036038101906101839190611434565b6103ef565b60405161019591906113f3565b60405180910390f35b6101a661041d565b6040516101b3919061149f565b60405180910390f35b6101c4610425565b6040516101d1919061141b565b60405180910390f35b6101f460048036038101906101ef919061139b565b610431565b005b610210600480360381019061020b919061139b565b6104c4565b005b61022c600480360381019061022791906114b8565b610598565b604051610239919061141b565b60405180910390f35b61024a6105dd565b60405161025791906112ea565b60405180910390f35b61026861066d565b604051610275919061153e565b60405180910390f35b6102986004803603810190610293919061139b565b610694565b005b6102b460048036038101906102af919061139b565b610727565b6040516102c191906113f3565b60405180910390f35b6102e460048036038101906102df9190611557565b610749565b005b61030060048036038101906102fb9190611582565b610891565b60405161030d919061141b565b60405180910390f35b61031e610913565b60405161032b919061141b565b60405180910390f35b606060038054610343906115ed565b80601f016020809104026020016040519081016040528092919081815260200182805461036f906115ed565b80156103ba5780601f10610391576101008083540402835291602001916103ba565b820191905f5260205f20905b81548152906001019060200180831161039d57829003601f168201915b5050505050905090565b5f806103ce61091c565b90506103db818585610923565b600191505092915050565b5f600254905090565b5f806103f961091c565b9050610406858285610935565b6104118585856109c7565b60019150509392505050565b5f6012905090565b670de0b6b3a764000081565b7f000000000000000000000000000000000000000000000000000000000000000073ffffffffffffffffffffffffffffffffffffffff163373ffffffffffffffffffffffffffffffffffffffff16146104b6576040517f52286ec400000000000000000000000000000000000000000000000000000000815260040160405180910390fd5b6104c08282610ab7565b5050565b7f000000000000000000000000000000000000000000000000000000000000000073ffffffffffffffffffffffffffffffffffffffff163373ffffffffffffffffffffffffffffffffffffffff1614610549576040517f52286ec400000000000000000000000000000000000000000000000000000000815260040160405180910390fd5b61059482827f000000000000000000000000000000000000000000000000000000000000000073ffffffffffffffffffffffffffffffffffffffff16610b369092919063ffffffff16565b5050565b5f805f8373ffffffffffffffffffffffffffffffffffffffff1673ffffffffffffffffffffffffffffffffffffffff1681526020019081526020015f20549050919050565b6060600480546105ec906115ed565b80601f0160208091040260200160405190810160405280929190818152602001828054610618906115ed565b80156106635780601f1061063a57610100808354040283529160200191610663565b820191905f5260205f20905b81548152906001019060200180831161064657829003601f168201915b5050505050905090565b5f7f0000000000000000000000000000000000000000000000000000000000000000905090565b7f000000000000000000000000000000000000000000000000000000000000000073ffffffffffffffffffffffffffffffffffffffff163373ffffffffffffffffffffffffffffffffffffffff1614610719576040517f52286ec400000000000000000000000000000000000000000000000000000000815260040160405180910390fd5b6107238282610bb5565b5050565b5f8061073161091c565b905061073e8185856109c7565b600191505092915050565b7f000000000000000000000000000000000000000000000000000000000000000073ffffffffffffffffffffffffffffffffffffffff163373ffffffffffffffffffffffffffffffffffffffff16146107ce576040517f52286ec400000000000000000000000000000000000000000000000000000000815260040160405180910390fd5b5f6107d76103e6565b826107e06103e6565b6107ea919061164a565b6005546107f7919061167d565b61080191906116eb565b9050600554811161084d57600554816040517f2c16897c00000000000000000000000000000000000000000000000000000000815260040161084492919061171b565b60405180910390fd5b806005819055507f388f446e9526fe5c9af20a5919b342370c8a7c0cb05245afe1e545658fa3cdba600554604051610885919061141b565b60405180910390a15050565b5f60015f8473ffffffffffffffffffffffffffffffffffffffff1673ffffffffffffffffffffffffffffffffffffffff1681526020019081526020015f205f8373ffffffffffffffffffffffffffffffffffffffff1673ffffffffffffffffffffffffffffffffffffffff1681526020019081526020015f2054905092915050565b5f600554905090565b5f33905090565b6109308383836001610c34565b505050565b5f6109408484610891565b90507fffffffffffffffffffffffffffffffffffffffffffffffffffffffffffffffff81146109c157818110156109b2578281836040517ffb8f41b20000000000000000000000000000000000000000000000000000000081526004016109a993929190611751565b60405180910390fd5b6109c084848484035f610c34565b5b50505050565b5f73ffffffffffffffffffffffffffffffffffffffff168373ffffffffffffffffffffffffffffffffffffffff1603610a37575f6040517f96c6fd1e000000000000000000000000000000000000000000000000000000008152600401610a2e9190611786565b60405180910390fd5b5f73ffffffffffffffffffffffffffffffffffffffff168273ffffffffffffffffffffffffffffffffffffffff1603610aa7575f6040517fec442f05000000000000000000000000000000000000000000000000000000008152600401610a9e9190611786565b60405180910390fd5b610ab2838383610e03565b505050565b5f73ffffffffffffffffffffffffffffffffffffffff168273ffffffffffffffffffffffffffffffffffffffff1603610b27575f6040517fec442f05000000000000000000000000000000000000000000000000000000008152600401610b1e9190611786565b60405180910390fd5b610b325f8383610e03565b5050565b610bb0838473ffffffffffffffffffffffffffffffffffffffff1663a9059cbb8585604051602401610b6992919061179f565b604051602081830303815290604052915060e01b6020820180517bffffffffffffffffffffffffffffffffffffffffffffffffffffffff838183161783525050505061101c565b505050565b5f73ffffffffffffffffffffffffffffffffffffffff168273ffffffffffffffffffffffffffffffffffffffff1603610c25575f6040517f96c6fd1e000000000000000000000000000000000000000000000000000000008152600401610c1c9190611786565b60405180910390fd5b610c30825f83610e03565b5050565b5f73ffffffffffffffffffffffffffffffffffffffff168473ffffffffffffffffffffffffffffffffffffffff1603610ca4575f6040517fe602df05000000000000000000000000000000000000000000000000000000008152600401610c9b9190611786565b60405180910390fd5b5f73ffffffffffffffffffffffffffffffffffffffff168373ffffffffffffffffffffffffffffffffffffffff1603610d14575f6040517f94280d62000000000000000000000000000000000000000000000000000000008152600401610d0b9190611786565b60405180910390fd5b8160015f8673ffffffffffffffffffffffffffffffffffffffff1673ffffffffffffffffffffffffffffffffffffffff1681526020019081526020015f205f8573ffffffffffffffffffffffffffffffffffffffff1673ffffffffffffffffffffffffffffffffffffffff1681526020019081526020015f20819055508015610dfd578273ffffffffffffffffffffffffffffffffffffffff168473ffffffffffffffffffffffffffffffffffffffff167f8c5be1e5ebec7d5bd14f71427d1e84f3dd0314c0f7b2291e5b200ac8c7c3b92584604051610df4919061141b565b60405180910390a35b50505050565b5f73ffffffffffffffffffffffffffffffffffffffff168373ffffffffffffffffffffffffffffffffffffffff1603610e53578060025f828254610e47919061164a565b92505081905550610f21565b5f805f8573ffffffffffffffffffffffffffffffffffffffff1673ffffffffffffffffffffffffffffffffffffffff1681526020019081526020015f2054905081811015610edc578381836040517fe450d38c000000000000000000000000000000000000000000000000000000008152600401610ed393929190611751565b60405180910390fd5b8181035f808673ffffffffffffffffffffffffffffffffffffffff1673ffffffffffffffffffffffffffffffffffffffff1681526020019081526020015f2081905550505b5f73ffffffffffffffffffffffffffffffffffffffff168273ffffffffffffffffffffffffffffffffffffffff1603610f68578060025f8282540392505081905550610fb2565b805f808473ffffffffffffffffffffffffffffffffffffffff1673ffffffffffffffffffffffffffffffffffffffff1681526020019081526020015f205f82825401925050819055505b8173ffffffffffffffffffffffffffffffffffffffff168373ffffffffffffffffffffffffffffffffffffffff167fddf252ad1be2c89b69c2b068fc378daa952ba7f163c4a11628f55a4df523b3ef8360405161100f919061141b565b60405180910390a3505050565b5f611046828473ffffffffffffffffffffffffffffffffffffffff166110b190919063ffffffff16565b90505f81511415801561106a57508080602001905181019061106891906117f0565b155b156110ac57826040517f5274afe70000000000000000000000000000000000000000000000000000000081526004016110a39190611786565b60405180910390fd5b505050565b60606110be83835f6110c6565b905092915050565b60608147101561110d57306040517fcd7860590000000000000000000000000000000000000000000000000000000081526004016111049190611786565b60405180910390fd5b5f808573ffffffffffffffffffffffffffffffffffffffff168486604051611135919061185f565b5f6040518083038185875af1925050503d805f811461116f576040519150601f19603f3d011682016040523d82523d5f602084013e611174565b606091505b509150915061118486838361118f565b925050509392505050565b6060826111a45761119f8261121c565b611214565b5f82511480156111ca57505f8473ffffffffffffffffffffffffffffffffffffffff163b145b1561120c57836040517f9996b3150000000000000000000000000000000000000000000000000000000081526004016112039190611786565b60405180910390fd5b819050611215565b5b9392505050565b5f8151111561122e5780518082602001fd5b6040517f1425ea4200000000000000000000000000000000000000000000000000000000815260040160405180910390fd5b5f81519050919050565b5f82825260208201905092915050565b5f5b8381101561129757808201518184015260208101905061127c565b5f8484015250505050565b5f601f19601f8301169050919050565b5f6112bc82611260565b6112c6818561126a565b93506112d681856020860161127a565b6112df816112a2565b840191505092915050565b5f6020820190508181035f83015261130281846112b2565b905092915050565b5f80fd5b5f73ffffffffffffffffffffffffffffffffffffffff82169050919050565b5f6113378261130e565b9050919050565b6113478161132d565b8114611351575f80fd5b50565b5f813590506113628161133e565b92915050565b5f819050919050565b61137a81611368565b8114611384575f80fd5b50565b5f8135905061139581611371565b92915050565b5f80604083850312156113b1576113b061130a565b5b5f6113be85828601611354565b92505060206113cf85828601611387565b9150509250929050565b5f8115159050919050565b6113ed816113d9565b82525050565b5f6020820190506114065f8301846113e4565b92915050565b61141581611368565b82525050565b5f60208201905061142e5f83018461140c565b92915050565b5f805f6060848603121561144b5761144a61130a565b5b5f61145886828701611354565b935050602061146986828701611354565b925050604061147a86828701611387565b9150509250925092565b5f60ff82169050919050565b61149981611484565b82525050565b5f6020820190506114b25f830184611490565b92915050565b5f602082840312156114cd576114cc61130a565b5b5f6114da84828501611354565b91505092915050565b5f819050919050565b5f6115066115016114fc8461130e565b6114e3565b61130e565b9050919050565b5f611517826114ec565b9050919050565b5f6115288261150d565b9050919050565b6115388161151e565b82525050565b5f6020820190506115515f83018461152f565b92915050565b5f6020828403121561156c5761156b61130a565b5b5f61157984828501611387565b91505092915050565b5f80604083850312156115985761159761130a565b5b5f6115a585828601611354565b92505060206115b685828601611354565b9150509250929050565b7f4e487b71000000000000000000000000000000000000000000000000000000005f52602260045260245ffd5b5f600282049050600182168061160457607f821691505b602082108103611617576116166115c0565b5b50919050565b7f4e487b71000000000000000000000000000000000000000000000000000000005f52601160045260245ffd5b5f61165482611368565b915061165f83611368565b92508282019050808211156116775761167661161d565b5b92915050565b5f61168782611368565b915061169283611368565b92508282026116a081611368565b915082820484148315176116b7576116b661161d565b5b5092915050565b7f4e487b71000000000000000000000000000000000000000000000000000000005f52601260045260245ffd5b5f6116f582611368565b915061170083611368565b9250826117105761170f6116be565b5b828204905092915050565b5f60408201905061172e5f83018561140c565b61173b602083018461140c565b9392505050565b61174b8161132d565b82525050565b5f6060820190506117645f830186611742565b611771602083018561140c565b61177e604083018461140c565b949350505050565b5f6020820190506117995f830184611742565b92915050565b5f6040820190506117b25f830185611742565b6117bf602083018461140c565b9392505050565b6117cf816113d9565b81146117d9575f80fd5b50565b5f815190506117ea816117c6565b92915050565b5f602082840312156118055761180461130a565b5b5f611812848285016117dc565b91505092915050565b5f81519050919050565b5f81905092915050565b5f6118398261181b565b6118438185611825565b935061185381856020860161127a565b80840191505092915050565b5f61186a828461182f565b91508190509291505056fea2646970667358221220993ad47e87a82481c8859e3442f91ed207ddfee7abc14b020422131d2dffdd0364736f6c63430008140033a2646970667358221220a4d1fadcb1151255ea6f0dc2937bd868d47e9ac91ffb396b30613eb1522dc59464736f6c63430008140033","linkReferences":{}},"methodIdentifiers":{"FEE_PRECISION()":"e63a391f","UPGRADE_INTERFACE_VERSION()":"ad3cb1cc","deposit(address,uint256)":"47e7ef24","flashloan(address,address,uint256,bytes)":"63ad2c41","getAssetFromToken(address)":"46638b10","getCalculatedFee(address,uint256)":"2d85a7db","getFee()":"ced72f87","getPoolFactoryAddress()":"8f3443cb","getPrice(address)":"41976e09","getPriceInWeth(address)":"70a1ed89","initialize(address)":"c4d66de8","isAllowedToken(address)":"cbe230c3","isCurrentlyFlashLoaning(address)":"396ecd78","owner()":"8da5cb5b","proxiableUUID()":"52d1902d","redeem(address,uint256)":"1e9a6950","renounceOwnership()":"715018a6","repay(address,uint256)":"22867d78","s_tokenToAssetToken(address)":"67ebd738","setAllowedToken(address,bool)":"8aaa2284","transferOwnership(address)":"f2fde38b","updateFlashLoanFee(uint256)":"d8566874","upgradeToAndCall(address,bytes)":"4f1ef286"}}}}}