{"abi":[{"type":"function","name":"getPriceOfOnePoolTokenInWeth","inputs":[],"outputs":[{"name":"","type":"uint256","internalType":"uint256"}],"stateMutability":"pure"}],"bytecode":{"object":"0x608060405234801561000f575f80fd5b5060b68061001c5f395ff3fe6080604052348015600e575f80fd5b50600436106026575f3560e01c8063b7e7fdcc14602a575b5f80fd5b60306044565b604051603b91906069565b60405180910390f35b5f670de0b6b3a7640000905090565b5f819050919050565b6063816053565b82525050565b5f602082019050607a5f830184605c565b9291505056fea264697066735822122013ada2a858d0732416ded5d44880640820ff64eac933dc76b4acc06aa37cc94264736f6c63430008140033","linkReferences":{}},"methodIdentifiers":{"getPriceOfOnePoolTokenInWeth()":"b7e7fdcc"},"id":48}