{"abi":[{"type":"function","name":"getPoolFactoryAddress","inputs":[],"outputs":[{"name":"","type":"address","internalType":"address"}],"stateMutability":"view"},{"type":"function","name":"getPrice","inputs":[{"name":"token","type":"address","internalType":"address"}],"outputs":[{"name":"","type":"uint256","internalType":"uint256"}],"stateMutability":"view"},{"type":"function","name":"getPriceInWeth","inputs":[{"name":"token","type":"address","internalType":"address"}],"outputs":[{"name":"","type":"uint256","internalType":"uint256"}],"stateMutability":"view"},{"type":"event","name":"Initialized","inputs":[{"name":"version","type":"uint64","indexed":false,"internalType":"uint64"}],"anonymous":false},{"type":"error","name":"InvalidInitialization","inputs":[]},{"type":"error","name":"NotInitializing","inputs":[]}],"bytecode":{"object":"0x608060405234801561000f575f80fd5b506103b58061001d5f395ff3fe608060405234801561000f575f80fd5b506004361061003f575f3560e01c806341976e091461004357806370a1ed89146100735780638f3443cb146100a3575b5f80fd5b61005d60048036038101906100589190610267565b6100c1565b60405161006a91906102aa565b60405180910390f35b61008d60048036038101906100889190610267565b6100d2565b60405161009a91906102aa565b60405180910390f35b6100ab6101e2565b6040516100b891906102d2565b60405180910390f35b5f6100cb826100d2565b9050919050565b5f805f8054906101000a900473ffffffffffffffffffffffffffffffffffffffff1673ffffffffffffffffffffffffffffffffffffffff1663bbe4f6db846040518263ffffffff1660e01b815260040161012c91906102d2565b602060405180830381865afa158015610147573d5f803e3d5ffd5b505050506040513d601f19601f8201168201806040525081019061016b91906102ff565b90508073ffffffffffffffffffffffffffffffffffffffff1663b7e7fdcc6040518163ffffffff1660e01b8152600401602060405180830381865afa1580156101b6573d5f803e3d5ffd5b505050506040513d601f19601f820116820180604052508101906101da9190610354565b915050919050565b5f805f9054906101000a900473ffffffffffffffffffffffffffffffffffffffff16905090565b5f80fd5b5f73ffffffffffffffffffffffffffffffffffffffff82169050919050565b5f6102368261020d565b9050919050565b6102468161022c565b8114610250575f80fd5b50565b5f813590506102618161023d565b92915050565b5f6020828403121561027c5761027b610209565b5b5f61028984828501610253565b91505092915050565b5f819050919050565b6102a481610292565b82525050565b5f6020820190506102bd5f83018461029b565b92915050565b6102cc8161022c565b82525050565b5f6020820190506102e55f8301846102c3565b92915050565b5f815190506102f98161023d565b92915050565b5f6020828403121561031457610313610209565b5b5f610321848285016102eb565b91505092915050565b61033381610292565b811461033d575f80fd5b50565b5f8151905061034e8161032a565b92915050565b5f6020828403121561036957610368610209565b5b5f61037684828501610340565b9150509291505056fea26469706673582212201877ad06c4e3d8ccbc66f3d3f10bf7fd37b5e7853b064e1b5e314b572232956064736f6c63430008140033","linkReferences":{}},"methodIdentifiers":{"getPoolFactoryAddress()":"8f3443cb","getPrice(address)":"41976e09","getPriceInWeth(address)":"70a1ed89"},"id":42}